:020000040000fa
:080000000002040000000000f2
:020000040000fa
:04000800560300009b
:020000040000fa
:04000c00d40200001a
:020000040000fa
:0400100016030000d3
:020000040000fa
:04001400f4020000f2
:020000040000fa
:0400180036030000ab
:020000040000fa
:04001c005603000087
:020000040000fa
:040020005603000083
:020000040000fa
:04002400560300007f
:020000040000fa
:04002800560300007b
:020000040000fa
:04002c005603000077
:020000040000fa
:040030005603000073
:020000040000fa
:04003400560300006f
:020000040000fa
:04003800560300006b
:020000040000fa
:04003c005603000067
:020000040000fa
:040040005603000063
:020000040000fa
:04004400560300005f
:020000040000fa
:04004800560300005b
:020000040000fa
:04004c005603000057
:020000040000fa
:040050005603000053
:020000040000fa
:04005400560300004f
:020000040000fa
:04005800560300004b
:020000040000fa
:04005c005603000047
:020000040000fa
:040060005603000043
:020000040000fa
:04006400560300003f
:020000040000fa
:04006800560300003b
:020000040000fa
:04006c005603000037
:020000040000fa
:040070005603000033
:020000040000fa
:04007400560300002f
:020000040000fa
:04007800560300002b
:020000040000fa
:04007c005603000027
:020000040000fa
:040080005603000023
:020000040000fa
:04008400560300001f
:020000040000fa
:04008800560300001b
:020000040000fa
:04008c005603000017
:020000040000fa
:040090005603000013
:020000040000fa
:04009400560300000f
:020000040000fa
:04009800560300000b
:020000040000fa
:04009c005603000007
:020000040000fa
:0400a0005603000003
:020000040000fa
:0400a40056030000ff
:020000040000fa
:0400a80056030000fb
:020000040000fa
:0400ac0056030000f7
:020000040000fa
:0400b00056030000f3
:020000040000fa
:0400b40056030000ef
:020000040000fa
:0400b80056030000eb
:020000040000fa
:0400bc0056030000e7
:020000040000fa
:0400c00056030000e3
:020000040000fa
:0400c40056030000df
:020000040000fa
:0400c80056030000db
:020000040000fa
:0400cc0056030000d7
:020000040000fa
:0400d00056030000d3
:020000040000fa
:0400d40056030000cf
:020000040000fa
:0400d80056030000cb
:020000040000fa
:0400dc0056030000c7
:020000040000fa
:0400e00056030000c3
:020000040000fa
:0400e40056030000bf
:020000040000fa
:0400e80056030000bb
:020000040000fa
:0400ec0056030000b7
:020000040000fa
:0400f00056030000b3
:020000040000fa
:0400f40056030000af
:020000040000fa
:0400f80056030000ab
:020000040000fa
:0400fc0056030000a7
:020000040000fa
:0401000056030000a2
:020000040000fa
:04010400560300009e
:020000040000fa
:04010800560300009a
:020000040000fa
:04010c005603000096
:020000040000fa
:040110005603000092
:020000040000fa
:04011400560300008e
:020000040000fa
:04011800560300008a
:020000040000fa
:04011c005603000086
:020000040000fa
:040120005603000082
:020000040000fa
:04012400560300007e
:020000040000fa
:04012800560300007a
:020000040000fa
:04012c005603000076
:020000040000fa
:040130005603000072
:020000040000fa
:04013400560300006e
:020000040000fa
:04013800560300006a
:020000040000fa
:04013c005603000066
:020000040000fa
:040140005603000062
:020000040000fa
:04014400560300005e
:020000040000fa
:04014800560300005a
:020000040000fa
:04014c005603000056
:020000040000fa
:040150005603000052
:020000040000fa
:04015400560300004e
:020000040000fa
:04015800560300004a
:020000040000fa
:04015c005603000046
:020000040000fa
:040160005603000042
:020000040000fa
:04016400560300003e
:020000040000fa
:04016800560300003a
:020000040000fa
:040208005603000099
:020000040000fa
:04020c00d402000018
:020000040000fa
:0402100016030000d1
:020000040000fa
:04021400f4020000f0
:020000040000fa
:0402180036030000a9
:020000040000fa
:04021c005603000085
:020000040000fa
:040220005603000081
:020000040000fa
:04022400560300007d
:020000040000fa
:040228005603000079
:020000040000fa
:04022c005603000075
:020000040000fa
:040230005603000071
:020000040000fa
:04023400560300006d
:020000040000fa
:040238005603000069
:020000040000fa
:04023c005603000065
:020000040000fa
:040240005603000061
:020000040000fa
:04024400560300005d
:020000040000fa
:040248005603000059
:020000040000fa
:04024c005603000055
:020000040000fa
:040250005603000051
:020000040000fa
:04025400560300004d
:020000040000fa
:040258005603000049
:020000040000fa
:04025c005603000045
:020000040000fa
:040260005603000041
:020000040000fa
:04026400560300003d
:020000040000fa
:040268005603000039
:020000040000fa
:04026c005603000035
:020000040000fa
:040270005603000031
:020000040000fa
:04027400560300002d
:020000040000fa
:040278005603000029
:020000040000fa
:04027c005603000025
:020000040000fa
:040280005603000021
:020000040000fa
:04028400560300001d
:020000040000fa
:040288005603000019
:020000040000fa
:04028c005603000015
:020000040000fa
:040290005603000011
:020000040000fa
:04029400560300000d
:020000040000fa
:040298005603000009
:020000040000fa
:04029c005603000005
:020000040000fa
:0402a0005603000001
:020000040000fa
:0402a40056030000fd
:020000040000fa
:0402a80056030000f9
:020000040000fa
:0402ac0056030000f5
:020000040000fa
:0402b00056030000f1
:020000040000fa
:0402b40056030000ed
:020000040000fa
:0402b80056030000e9
:020000040000fa
:0402bc0056030000e5
:020000040000fa
:0402c00056030000e1
:020000040000fa
:0402c40056030000dd
:020000040000fa
:0402c80056030000d9
:020000040000fa
:0402cc0056030000d5
:020000040000fa
:0402d00056030000d1
:020000040000fa
:0402d40056030000cd
:020000040000fa
:0402d80056030000c9
:020000040000fa
:0402dc0056030000c5
:020000040000fa
:0402e00056030000c1
:020000040000fa
:0402e40056030000bd
:020000040000fa
:0402e80056030000b9
:020000040000fa
:0402ec0056030000b5
:020000040000fa
:0402f00056030000b1
:020000040000fa
:0402f40056030000ad
:020000040000fa
:0402f80056030000a9
:020000040000fa
:0402fc0056030000a5
:020000040000fa
:0403000056030000a0
:020000040000fa
:04030400560300009c
:020000040000fa
:040308005603000098
:020000040000fa
:04030c005603000094
:020000040000fa
:040310005603000090
:020000040000fa
:04031400560300008c
:020000040000fa
:040318005603000088
:020000040000fa
:04031c005603000084
:020000040000fa
:040320005603000080
:020000040000fa
:04032400560300007c
:020000040000fa
:040328005603000078
:020000040000fa
:04032c005603000074
:020000040000fa
:040330005603000070
:020000040000fa
:04033400560300006c
:020000040000fa
:040338005603000068
:020000040000fa
:04033c005603000064
:020000040000fa
:040340005603000060
:020000040000fa
:04034400560300005c
:020000040000fa
:040348005603000058
:020000040000fa
:04034c005603000054
:020000040000fa
:040350005603000050
:020000040000fa
:04035400560300004c
:020000040000fa
:040358005603000048
:020000040000fa
:04035c005603000044
:020000040000fa
:040360005603000040
:020000040000fa
:04036400560300003c
:020000040000fa
:040368005603000038
:020000040000fa
:100400002f8820000eff20000e0188000000000051
:10041000000020000000e000020032000001200087
:100420002002880014000700d80007000000e00048
:1004300003003a0060e221000100200002003700c2
:100440000000200001002000810f70000100320038
:1004500014000700000020000000e000020032004d
:1004600000000200000000006a130200000000000b
:100470000040da000000fe004440a900600a2000ad
:100480000000e0000300320000002000a00188000e
:100490004440a800000006008a1f78008b1f7800e7
:1004a0000000060091018800800478000000eb0045
:1004b0001a003700e284440032a0b4009905ba0063
:1004c000e284440032a0b4009906ba00e2844400f9
:1004d00032a0b4000006eb00476fde00fd07b2005b
:1004e000636ce10003003a00ebff07000000eb0043
:1004f0000a003700606ce10004003a00005deb0088
:100500008b05e900fdff3e00040037006168e10053
:10051000010032000086eb000b00070019c7ba008b
:100520001905ba000e04e00003003a000a00e000da
:10053000e0ff3a0000000600fe07b2009e018800be
:100540008a047800f5ff3700395dba008b05e900b1
:100550000c003200295dba008b05e900080032006a
:100560000c00e00003003a00e284440032a0b40032
:10057000f5ff370019ddba008b05e900faff3a00f4
:100580008904e800e184440032a0b40000000600c1
:10059000000000000000000000000000000000005b
:1005a00000000000000000003600f800809fbe0040
:1005b000829fbe00849fbe00869fbe000000fa009e
:1005c0008020a9000000eb000e0e07000080fa005a
:1005d0004f03be004f02be004f01be004f00be00e1
:1005e0003600f900004006003600f800809fbe008b
:1005f000829fbe00849fbe00869fbe000000fa005e
:10060000050e07008040a90010002000fd0d070026
:100610000080fa004f03be004f02be004f01be0033
:100620004f00be003600f900004006003600f8001a
:10063000809fbe00829fbe00849fbe00869fbe003a
:100640000000fa008060a90020002000ed0d0700e6
:100650000080fa004f03be004f02be004f01be00f3
:100660004f00be003600f900004006003600f800da
:10067000809fbe00829fbe00849fbe00869fbe00fa
:100680000000fa008080a90030002000dd0d070086
:100690000080fa004f03be004f02be004f01be00b3
:1006a0004f00be003600f900004006000040da00ae
:1006b0000000fe00ec8747008e1f78006c87570013
:1006c00044002000041f7800000f78006c8757005a
:1006d00002afbe00e1bf9f006c8057009b06070081
:1006e0001e00be004f077800cf00b10000000600da
:1006f000ec8747008e1f780011002000a1bf9f00eb
:100700006c875700002f78006c8057009106070017
:100710001e0078004f077800cf00b10000000600ef
:100720000800fa008e81e800800978006400470024
:10073000010878006600470002087800660047005c
:10074000100f78000a00370064004700100078009e
:1007500010407800e4004700910078000101e800b3
:10076000e400470082087800f50c07001e0fe9003e
:100770001e0078000000e000f3ff3a00660047002a
:10078000100078000080fa0000000600000005005c
:100790006022b800060220000000d0008180d20054
:1007a0000482d2008582d2000000a0000202520022
:1007b00083825a00030031000202420083824a0011
:1007c0000000a1000603e900f3ff3a000000060064
:1007d000efff07000400be00000006000000fa0062
:1007e000cfb8970068815700104180001000780052
:1007f0002b0207000080fa000000060050000700ee
:10080000a80007005801070080010700da00370040
:100810000000fa00cfb89700688157002e02070049
:100820000080fa0000000600d30037008000780046
:100830001000200002022000828f500004003200cd
:10084000e9805000e48f5000010036000000eb000a
:1008500000000600889fbe008a1f78008004780090
:100860000904780088047800394578000a00fb0004
:10087000eeff07000000e000f9ff3a00b0c2b3004d
:10088000804f550005003200d0c2b3008000eb005d
:10089000804f550005003a00020037008000eb0051
:1008a00001003700110020000804e8000000eb0000
:1008b000030037006a02b900020052000003b000d2
:1008c0003801fb0003fd2f0082814100e98f5100b8
:1008d000f8ff36000100e00001003a000000ea00e5
:1008e0004f0578004f04be00000006001141800053
:1008f00091007800d9043700810178000002780067
:1009000030417800b14f510002003a000204e0008b
:10091000f9ff3a009480fb001380fb000080500038
:100920000000060000000600808220000000060093
:10093000fdff0700304188002041880000000600cc
:10094000ec874700889fbe008a9fbe008c9fbe0038
:100950008e1f7800000678000104780018079000c8
:100960002805900098067800cdb79f00b805900044
:100970003202be002203be000400be000601be001b
:100980004f18de006011b8008000eb00d0b79f0068
:10099000e1b79f00f2b79f0083bf9f0080047800fb
:1009a0000900e000060032006000b8006011b800e5
:1009b00004025000858258000603590087835900bd
:1009c0000e00e000020035000d10a100cdb79f0021
:1009d0000900e00005003a004fb097000028a3008e
:1009e00002003a000038a300020032008a00e90049
:1009f000010037008a007800f8815700a20020002b
:100a000008007800860007000900e00003003a00b3
:100a1000cfb097000128a300080032000000e900d1
:100a200000814500b1c2b3000900e00001003200be
:100a3000d1c2b30001497800050037000138a30096
:100a4000030032000000e90001c2b30081757800a4
:100a5000480190000201e90000015100808045003a
:100a60004fb297008a0178000c007800d00107008f
:100a70009c0090000188a3000400320098009000c0
:100a8000810f500001003d00010078004f07780001
:100a90004f06be004f05be004f04be00cf00b100a0
:100aa000000006000200fa00889fbe008a9fbe0078
:100ab0000005780001047800020078001801900019
:100ac000a805900098007800b1bf9f00b80490007e
:100ad0000200e000020035000110a100b1bf9f003c
:100ae000ea815700820020008b0078003002be00af
:100af0002003be0008007800490007003fb99700b6
:100b0000f0006100030032000000e90001c3b300ff
:100b1000817478003fb99700e8006100030032005b
:100b20000000e90001c2b300817478004801900020
:100b30000201e90000015100808044003fba9700a3
:100b40008b0178000a007800990107009a00900054
:100b50000188a3000400320098009000810f50002b
:100b600001003d00010078004f05be004f04be00ab
:100b70000080fa0000000600ea874700889fbe0058
:100b80008a9fbe008e1f7800000478000300780062
:100b90007287570084e2260055c72600049fbe00d6
:100ba000c3962200030f78006c875700004feb00bc
:100bb00011059000a1049000910578000200e0006a
:100bc00002003200020778000100370072875700e8
:100bd0000000e00002003a000e0078002004070048
:100be0000a00e000030035008a0f500001003600c3
:100bf0000a0078000b027800890178000001780073
:100c00008e00780008007800690107004f0778001f
:100c10004f05be004f04be00af00b100000006004b
:100c2000f4874700889fbe008a9fbe008c9fbe004d
:100c30008e1f78000605be000404be0081bf9f0021
:100c400082b79f00f3b79f00b0009000e1b79f000c
:100c50001301780092b79f00900690004006900024
:100c60000c06e9000d00e00001003d001d00200021
:100c7000efb197000c8041000048eb001e002000ff
:100c80001f0037000c06e9000fb09700cf80de0090
:100c90006109b900a0b79f00b1b79f00c2b79f001c
:100ca000d3b79f000203be000002be000800be00d2
:100cb0000a01be00d205070000077800efb09700d8
:100cc0000c80400003c3b300034847008d06e900d1
:100cd0000fb897000000e90080bf9f002fb2970077
:100ce000bfb297004fb39700dfb397000800be0074
:100cf0000a01be00bb0507000205be000004be00dd
:100d00000c00e0000d003200e00f5400e08f5c00aa
:100d1000e00f5d00e08f5d00daff3a000d00e000bb
:100d2000d8ff3c008fb897000100e00003003400ba
:100d30001fb197000218a300d2ff3a000e00e00096
:100d400002003a00ffb197001340a1000c007800a8
:100d50004f0778004f06be004f05be004f04be008f
:100d60004f01b100000006000200fa00889fbe009b
:100d70008a9fbe0080047800010478000200780099
:100d8000180190002805900098007800b1bf9f00de
:100d9000b80590000200e000020035000110a1003b
:100da000b1bf9f00ea815700a20020008a007800ae
:100db0003002be002003be000800780098ff070044
:100dc000480190000201e9000001510080804500c7
:100dd0003fba97008a01780009007800f400070004
:100de000990090000188a300040032009800900050
:100df000810f500001003d00010078004f05be004a
:100e00004f04be000080fa0000000600fa87470089
:100e1000889fbe008a9fbe008c9fbe008e1f7800f8
:100e200080047800010478008205780018019000a1
:100e30002805900018077800b80090000200e00034
:100e4000020035000e10a100010037001200200042
:100e500070006700e0b79f00090032003b02be004f
:100e60002b03be00e00f5200e08f5a00e00f5b0042
:100e7000e08f5b00020032008a86e9000100370043
:100e80008a067800e8026700f5b79f00010032008b
:100e90008d06e9003b02be002b03be00e4af9f00bd
:100ea000f5af9f0086b79f0097b79f004806900058
:100eb0000c06e9000c8040000048eb00efb2970000
:100ec0007fb297008903780081047800d8af9f0033
:100ed000020478008bbf9f008a05780003457800e4
:100ee0002a0037000c06e9006fab97006f00630023
:100ef000e90f500002003c000003b0000100370081
:100f00007005b0000a03fb001604b100f90f53008e
:100f10000c003e00000378000650a0001606b10049
:100f2000f90f530007003e00b4b79f00a5b79f001c
:100f3000c7b79f008e030700cfb39700afb29700eb
:100f40003fb2970080747e000804e9008d06e90036
:100f50006fa89700ffa897000fb197009fb1970067
:100f6000460020008301d1000281d3008180d3009c
:100f70000080d3000603e900faff3a00e0af9f00cb
:100f8000f1af9f0082b79f0093b79f00e10f56001b
:100f90000f0036006fa89700ffa897000fb19700c9
:100fa0009fb19700e00f5000e08f5800e00f59000c
:100fb000e08f5900cbff3a000800e000c9ff3c0079
:100fc0000d00e000020034000e18a300c5ff3a0037
:100fd00089007800f4b79f00870478005fac970021
:100fe0008a4178000b0578008fbd97000500e0006e
:100ff000100032003b02be002b03be00e4af9f0096
:10100000f5af9f0086b79f0097b79f00e00f520093
:10101000e08f5a00e00f5b00e08f5b0005003200bc
:101020000c06e90083707e000c06e90000c3b300e3
:1010300080707e00ffb297000500e00003003200e0
:101040000c06e90000c2b30080707e0048019000e9
:101050000201e9000c0151008c8040000e02780072
:101060008a0178000900780051000700990090007b
:101070000188a3000400320098009000810f500006
:1010800001003d00010078004f0778004f06be00c8
:101090004f05be004f04be00af01b10000000600c6
:1010a0000200fa00881f780000047800e2bf9f0069
:1010b0006481570008007800f00107009800900054
:1010c0000148a300010032000080eb004f047800cb
:1010d0000080fa000000060082017800010178001b
:1010e000f1ff2700f6023700889fbe008a1f7800b4
:1010f000800478004900900002047800800f5400ba
:101100000100360000047800080178006a85440078
:101110001a0078004f0207001a004400000d780002
:10112000e8844400990c14000048eb004f05780057
:101130004f04be00000006001000780078fd370064
:10114000900190000388a30001003200e6ff370001
:101150000348a30001003a00f7ff07000000060063
:10116000889fbe008a1f78008004780049009000a4
:1011700002047800800f540001003600000478005b
:10118000080178006a8544001a00780031020700df
:101190001a004400000d7800e8844400990c140003
:1011a0000048eb004f0578004f04be000000060029
:1011b000f2874700889fbe008a9fbe008c9fbe00ba
:1011c0008e1f780080047800010578000204780002
:1011d000830578006107620002003a008b0f54001b
:1011e00008003900080178008a00780009007800ba
:1011f000d3ff07008b0f54000200390088057800e8
:101200001e003700088655000c017800f00f5600cc
:101210000100360002012000010220007e805700fc
:10122000130207008c067800050037000201200039
:10123000fe80570009007800c1ff0700f0865600c5
:10124000ef8f5600f9ff3e004461de0000ff2f00e3
:101250000091b90002014600fe80570009007800a5
:10126000b7ff07000e00e00004003a000801780014
:101270008a00780009007800b1ff07000b007800b1
:101280004f0778004f06be004f05be004f04be005a
:101290002f01b1000000060000000500000005005d
:1012a00000000500000178000040eb008080fb009a
:1012b00081804000a386200063c278000404e0001f
:1012c00003003a00b086200060c0780000000600ed
:1012d00092017800934f520004003a00b08620003b
:1012e00060c078000309e800010037000040e80012
:1012f000ea4f5000edff360000000600f687470079
:10130000889fbe008a9fbe008c9fbe008e1f780003
:1013100080047800010478008305780004067800d2
:101320000000eb00c0b79f008080eb00d1b79f00aa
:10133000e0b79f00f2b79f000008200080bf9f0029
:1013400098007800010078000005eb0001003700ec
:101350000a05e800304178000204e0000300320092
:1013600053c2b300834f5100f9ff3a000a00e00076
:10137000040032000a0178000900780070ff0700bd
:10138000180c45001807780050c2b3009e4f10009b
:1013900033013a000e07e8000e0c78001000370009
:1013a000cfb097000100a0000b003700cfb097002e
:1013b0000110a00008003700cfb097000120a00066
:1013c00005003700cfb097000130a00002003700c1
:1013d000cfb097000140a000c1b79f00000ce8000b
:1013e0001800780090407800b2c2b30082cf50005d
:1013f000f1ff320007003c0002c2b30082cf500070
:10140000f0ff320032c2b30082cf500007003a0032
:10141000efff3700d2c2b30082cf5000e0ff3200ae
:1014200002c3b30082cf5000e0ff3200a2c2b3007b
:1014300082cf50000d003a00000ce8001c80e9004b
:10144000000e780010007800e0b79f000000e00078
:101450000f003d00cfb097000100a200c1b79f0070
:101460000000ea00e0b79f0009003700f9fc070020
:10147000e0b79f0001003700000ce800180078007a
:101480009000fb000103b100e98f5000faff360025
:101490004fb097000008a300020032000010a10026
:1014a000c0b79f0018007800e1c2b30090cf1000d1
:1014b00016003a008000eb00d1b79f000000e80062
:1014c000000c7800a1c2b30090cf100006003a00d3
:1014d000000ce8001c80e900000e78001000780085
:1014e000d0b79f0009003700dafc0700d0b79f0093
:1014f00001003700000ce800180078009000fb00a5
:101500000103b100e98f5000faff360008007800af
:1015100064ff070080467800180078001000fb0088
:101520000c02070091062000810f500038003200a5
:1015300012003c0041062000810f500034003200b0
:101540000a003c0011062000810f500020003200ec
:1015500031062000810f50009a0032005102200015
:10156000810f5000ae003a00a7003700710620003e
:10157000810f5000aa003c008200370001072000c4
:10158000810f50005c00320007003c00e1062000a3
:10159000810f500074003200f1062000810f5000ce
:1015a0009f003a003900370051072000810f50009a
:1015b0002700320081072000810f500042003200d6
:1015c00031072000810f500095003a008500370058
:1015d0008d80fb000c01780000fe2f000f00400002
:1015e000ea0107000000e0009c00320018007800cb
:1015f000000ce8009041780002fe2f000f0141002e
:10160000f88057000900780024ff07000e0037001b
:101610008d80fb008c0178001200200000fe2f005e
:101620000f004000f80107000000e0008b003200ce
:10163000180ce80002fe2f000f014100f88057004f
:1016400009007800befc0700000545008400370053
:101650008d80fb008c0178000001eb0000fe2f0064
:101660000f004000e80107000000e0007b003200ae
:10167000180ce80002fe2f000f014100f88057000f
:1016800009007800b8fd0700efff37008d80fb00f0
:101690008c0178000001eb0000fe2f000f004000dd
:1016a000d90107000000e0006c003200180ce800cf
:1016b00002fe2f000f014100f8805700090078005a
:1016c000f8fc0700e0ff37008d80fb008c017800fc
:1016d0000001eb0000fe2f000f004000ca010700d0
:1016e0000000e0005d00320018007800000ce80007
:1016f00090417800160037008c0178000001eb0063
:10170000010f200000fe2f000f004000be01070067
:101710000000e00051003200180ce8000fb0970004
:101720009fb097002fb19700bfb19700e00f500016
:10173000e08f5800e00f5900e08f590003003a0095
:101740008001eb00428620004000370083c7b300d1
:1017500002fe2f000f014100f880570009007800b9
:10176000aafd0700b8ff37000b0145008d80fb0084
:101770008c01780000fe2f000f004000fb010700e5
:10178000360037008d80fb000c01780000fe2f0032
:101790000f0040007d0107000000e0002f00320034
:1017a00018007800000ce8009041780002fe2f003d
:1017b0000f014100f880570009007800b7fe0700cc
:1017c000a1ff370000c8b30080cf560023003a00c5
:1017d000180ce8001c80e900000e7800104078002a
:1017e0000d00370000c8b30080cf56001b003a0040
:1017f000180ce8001c80e900000e78008001eb0066
:10180000100178001100370001c8b30081cf5600e5
:1018100012003a00180ce800e0df9f0008003700d3
:1018200050c2b300e0df9f000e0c78000000eb0018
:10183000c0b79f00e0b79f008080eb00d1b79f004a
:1018400013002000e2fd2f000f014100f880570037
:1018500009007800c8fc07007bff3700180ce8007f
:101860000a0078004f0778004f06be004f05be0003
:101870004f04be006f01b100000006008200fa00b4
:10188000889fbe008a1f78000005780082047800d7
:10189000c13f9f000004eb001000370009027800f0
:1018a00088017800a2f72f000f01410081f72f0077
:1018b0008f8040000a00780090fe0700080040007a
:1018c000880f500004003d00b00420000044880050
:1018d0000084eb0004003700000478004f389700c4
:1018e0001004e000edff3a00080078004f05780092
:1018f0004f04be000080fa0000000600889fbe0072
:101900008a1f780000047800010578000000eb00d1
:101910000800e0001a003200180090000058a300f0
:101920000c003200ea04440068009000990f100097
:1019300008003600b80990000001eb008200780032
:1019400008007800030001000080eb001900e000af
:101950000b003200740044000008eb006c004400ef
:101960000008eb006a0044000008eb000000eb00f8
:101970000a00e00002003200180078005cfb07005b
:101980004f0578004f04be0000000600889fbe008f
:101990008a1f78000004be000000eb000800e00091
:1019a00029003200180090000058a30012003200f5
:1019b0006a054400680090009a0f10000800360085
:1019c000b80990000001eb00820078000800780060
:1019d000030001000080eb001a00e0001a00320052
:1019e000740044000008eb006c0044000008eb00a9
:1019f0006a0044000008eb00780a9000081090008c
:101a0000800f520006003100000252001100200039
:101a1000cfa2de00612bb9001800780025fb07007b
:101a200000022000080040000008eb007e00440097
:101a30000008eb000000eb000900e00002003200ab
:101a4000180078002afb07004f0578004f04be00fd
:101a5000000006008001780002003700b1597800cc
:101a60000201e9000200e000fcff3a00000006006d
:101a7000889fbe008a9fbe00800478000200e000bc
:101a80005a00320001407800814c78008281440085
:101a9000f1f99f00e20f5100540036009144980084
:101aa000a1449800e1f99f00d1f99f00e60f510091
:101ab0004e003600b1449800c1f99f00e80f510074
:101ac0004a0036000905ea00630565000a844400ff
:101ad0000a055100c1ff2f00010565000080fb00d1
:101ae0008000eb001210200013102000910107006d
:101af000008cbe000a01440060b99f0071b99f00cc
:101b0000e80f550039003600200498003104980091
:101b1000400498005104980020b99f0031b99f00fb
:101b200040b99f0051b99f00f80f55002f003600b3
:101b30006004980071049800000c9800110c980043
:101b4000200c9800310c9800400c9800510c980023
:101b500020b19f0031b19f0040b19f0051b19f0063
:101b600060b19f0071b19f0000b99f0011b99f0043
:101b7000640164007801410002044400020555003c
:101b80006011b8000203be000002be000403be00e4
:101b90006022b800000072008180720002017300b0
:101ba000838173000f00370008027800009abe009e
:101bb000029abe00009abe000292be00000c98007d
:101bc000110c9800220c9800330c9800400c9800df
:101bd000510c9800620c9800730c98000a02b10036
:101be0000802b000ff0f5500efff3e00090078002b
:101bf0004f05be004f04be00000006000200fa00c0
:101c00000001780001007800e2ff9f009000900042
:101c10000188a30006003200ea014000930078002a
:101c2000825878000280fb008109780009003700a3
:101c3000120020008f80e9003ffd0700800078003f
:101c40000080eb000100e00002003200eff8970096
:101c50000180fb000080fa0000000600e7ff37006b
:101c600080007800040037003104e00002003a00f0
:101c70000000510000000600010178000108a300e7
:101c8000f9ff3a008101780031017800f4ef2f006c
:101c9000020242000281ea000201620004082800f8
:101ca00004016100f7ff3200830078000101780031
:101cb0003104e000fdff3a00000051000000060082
:101cc000f28747008e1f7800020278000301780037
:101cd0000000e00002003200000778000100370039
:101ce000728757008002eb000100e0000100320023
:101cf0008102e90070805700060009000018eb001f
:101d00007280570000a8eb002310200093bf9f00b3
:101d1000aebf9f00b1bf9f00c5bf9f000100e000a4
:101d200004003d00b0042000004488000080eb0067
:101d300005003700004feb00eebf9f00debf9f00a5
:101d400084007800d6fc07004f0778002f01b1000f
:101d500000000600f1fb2f0080804000f98f50004a
:101d600001003e000050a00000000600f9ff37000f
:101d7000f1f92f0080804000f98f500001003e00f3
:101d8000f005b20000000600f9ff3700881f780058
:101d90000004780000082000808f500017003500f4
:101da00010082000808f50000b0034003008200005
:101db000808f500011003a00920078006880500037
:101dc000000978003002be002003be00049cbe0063
:101dd0000694be000700370092027800648052002b
:101de000000978001000be009e000700009cbe00a5
:101df0000294be0010002000010037000000eb003c
:101e00004f0478000000060084082000848f5000f2
:101e10001d0032000d003c0014082000848f50008b
:101e20002700320002003c000408200004003700b4
:101e300024082000848f50002a003200440820002b
:101e4000848f500048003a003b003700040a20000d
:101e5000848f50002c00320004003c000409200054
:101e6000848f500040003a002d003700020c200003
:101e7000828f50001e003200020f2000828f50001f
:101e800039003a00300037009380e9000200e0009a
:101e900005003200810978001102fb00cfa2de00ac
:101ea000612bb9002d0037008109780011427800bc
:101eb0000482fb008002eb006033b800270037008b
:101ec00013027800e40052000200e0000a00320031
:101ed000810978001102be004fabde008603780056
:101ee0001e00370093027800e88052000e00370091
:101ef00093027800e4805200810978001102be004c
:101f00006033b800150037009380e900810978003c
:101f100011027800cfa2de00612bb9000f0037005c
:101f200013037800e8005300810978003102be00f5
:101f30002103be00090037009380e9000200e000a1
:101f400002003200f1ff37009380e9008109780038
:101f5000110278008002eb006033b8000498be00e4
:101f60000690be0010000500000005004408200097
:101f7000848f5000270032000a003c001408200023
:101f8000848f50001c00320024082000848f5000f1
:101f90002600320004082000848f50002c003a00f4
:101fa0001c00370004092000848f50001f003200fd
:101fb00004003c0084082000848f500024003a0074
:101fc00007003700040a2000848f500011003200ff
:101fd000040c2000848f50001d003a0006003700da
:101fe0009380e90081097800910078000108780069
:101ff00082487800150037009380e9008109780055
:102000009100780001087800cf91de008288be0040
:102010000e0037009380e900810978009100780074
:102020000108780082087800080037009380e900f2
:102030008109780091007800010878006112b900e8
:10204000612bb9008498be008690be001000050088
:10205000000005000000060035fa0700fdff07003c
:10206000fcff3700810378001d0007000001be005f
:102070006000b8000478a30013003a006220e10079
:1020800015003e000d0039008301d1000281d3000c
:102090008180d3008301d1000281d3008180d300ed
:1020a0008301d1000281d3008180d3000538b000c4
:1020b000c42add00f300b2008381720007f0a7009c
:1020c00003f0a0000000060083ff270002002000ac
:1020d0006110b900f9ff370003ff2700f7ff370051
:1020e000c70ade00f107b200f50fb20008003200a7
:1020f000e1cf4200020032000170a0002400050080
:10210000810f700001003200040805004400050042
:10211000810f700002003a00140005008502e900fa
:102120000000400081c04800fcff3b000170a0009f
:1021300024000500020ab900001bb9000200b80023
:1021400081004200810043000000060000c0da0068
:102150000000060000c0da0000000600889fbe00f4
:102160008a9fbe0030044200b0844a0030054b0014
:1021700090854b006000b1000898be000a90be0038
:102180000440e10005c8e10006d0e10007d8e10005
:1021900002003100680040001008e8004f05be0052
:1021a0004f04be0000000600889fbe008a9fbe004c
:1021b0003004be002005be000418540005985c00e1
:1021c00006185d0007985d00110020000440e10042
:1021d00005c8e10006d0e10007d8e10001003900a0
:1021e0008000eb00108810004f05be004f04be00b9
:1021f00000000600f4874700889fbe008a9fbe004b
:102200008c9fbe008e1f7800d0b79f00e1b79f0063
:10221000f2b79f0083bf9f000605be000404be0006
:10222000cfae97000000eb00c0b79f00b0b79f0093
:10223000a0b79f0090b79f0080b79f00000678006e
:102240004fb09700000140000000e00006003d0094
:102250003c0007000f074700450007000f00400043
:10226000beff070005003700360007000f074700d4
:102270003f0007000f004000cbff07004fb797005b
:102280000e00e0000c0035005fb29700efb297003f
:102290007fb397008fbb9700100020000100200043
:1022a0006011b800000272008182720002037300a4
:1022b000838373001c0007000c06e8000104200063
:1022c000810f5600deff3a000e00e00005003d00e1
:1022d0000802be000a03be0000fe2f000f004000ef
:1022e0009eff07000d00e00005003a000fb29700c6
:1022f0009fb297002fb39700bfb397000a00070063
:102300005fb09700efb097007fb197008fb997004b
:102310004f0778004f06be004f05be004f04be00b9
:102320004f01b10000000600010007000000060098
:1023300094b79f00a5b79f00b6b79f00c7b79f008f
:10234000000006009fb097004f08de0002017000f9
:10235000a2b79f000fb097004f01de0081804000c0
:102360008100710091b79f000efe2f000000060053
:10237000de0078004f09de00000040000000710020
:1023800080b79f006fa897004f01de00818040005a
:10239000010f71000e0007004f3ade000000400000
:1023a00004007000e0af9f00090007000402420033
:1023b00085824a0006034b0087834b00dcff070041
:1023c0000802be000a03be0000fe2f000000060047
:1023d0001fb29700afb297003fb39700cfb39700fb
:1023e00000000600881f780018002000881f780071
:1023f00080ff07008f87e9004f0478000000060087
:10240000801feb007bff07008f87e90000000600bc
:10241000889fbe008a9fbe00e00f5000e08f5800ea
:10242000e00f5900e08f59000c003d006044b800f7
:102430006055b8000000540081805c0002015d001e
:1024400083815d00180020001500070008003d0092
:10245000180007000004eb00050037000004eb0043
:102460000f00070002003d001200070018002000c6
:10247000dcff07000800e000060032006022b80020
:102480006033b8000000520081805a0002015b00f6
:1024900083815b004f05be004f04be0000000600b4
:1024a000e00f5200e08f5a00e00f5b00e08f5b000e
:1024b000000006006044b8006055b80004025400f3
:1024c00085825c0006035d0087835d0000000600d6
:1024d000889fbe008a9fbe008c1f7800e00f5000ce
:1024e000e08f5800e00f5900e08f59000d003d00cb
:1024f0006044b8006055b8000000540081805c0062
:1025000002015d0083815d001c0020000820e100c5
:1025100009a8e1000ab0e1000bb8e1000d003d00a0
:10252000080037000006eb00e00f5200e08f5a0071
:10253000e00f5b00e08f5b0006003d006044b800e8
:102540006055b8000402540085825c0006035d00fb
:1025500087835d00aaff07000c00e0000600320040
:102560006022b8006033b8000000520081805a0039
:1025700002015b0083815b004f0678004f05be00bf
:082580004f04be00000006003c
:020000040000fa
:1025880041770000427f0000434e0000447e000077
:10259800454f000046470000475e000048370000ee
:1025a800493000004a3c00004c0e00004e76000006
:1025b8004f7e00005067000052050000535b00008a
:1025c800540f0000553e0000592700005b4e0000e4
:1025d8005d7800005f08000061770000621f00005e
:1025e800630d0000643d0000654f00006647000071
:1025f800675e000068170000691000006a3c000070
:102608006c0e00006e1500006f7e00007067000001
:1026180072050000735b0000740f0000751c000059
:10262800792700002d01000020000000307e000006
:1026380031300000326d000033790000343300007f
:10264800355b0000365f000037700000387f0000ff
:10265800397b000030000000252e00002a7300009e
:10266800005300004d4f00004445000000470000a3
:10267800414900004e00000049000000434f00009f
:10268800554e000054000000433d00002530000076
:10269800356c0000750000004d000000210a0000a4
:1026a8000d000000256c0000750a00000d000000f8
:1026b800454e000044000000454e00004420000044
:0c26c800210000000a0d000000000000ce
:020000040000fa
:1026d4006600fa0010c0b300004f7800110020001b
:1026e4006c0047000108780011c0b3000e00e80038
:1026f400014878008040eb000e80e8000148780033
:102704008040eb006300470001487800c8050700db
:1027140046020700030037000000000001003700f4
:102724000000000010168000610060000000e0005e
:102734001b003200000000001016800061006000e1
:102744000000e000fcff3a008040eb00630047001b
:10275400014878000e00e800104078000081fb007a
:10276400b0aa2a000010b8000100d1006300b9002b
:1027740000007800800051000e00e8000148780055
:102784000e00e800104078008040e8000e00e800e9
:102794000148780000a02600810120008a05070076
:1027a40010168000620060000000e0001400320097
:1027b4000000000010168000620060000000e000cd
:1027c400fcff3a0011c0b3006300470001487800e1
:1027d4001e81fb00b0aa2a000010b8000100d1003d
:1027e4006300b9000000780000005100004f780039
:1027f4001e4fe80000a0260081012000720507009a
:1028040010168000640060000000e0000b0032003d
:102814000000000010168000640060000000e0006a
:10282400fcff3a0011c0b3000e80e80001487800b4
:1028340000a0260081012000630507001e407800e7
:10284400e14f50000b003a0063004700104078004d
:102854000004e0000700320000a0260081012000ef
:10286400590507001000200001002000170207008e
:102874001b0037001e407800e24f50000b003a0066
:1028840063004700104078000004e00007003200b5
:1028940000a02600810120004b0507005000200005
:1028a40001002000090207000d0037001e407800d7
:1028b400e34f50000a003a006300470010407800dc
:1028c4000004e0000600320000a026008101200080
:1028d4003d050700a000200001002000fb010700c7
:1028e4000e00e80010407800e14f500010003a005c
:1028f40063004700104078000004a2000004e000d8
:102904000b00320000a02600810120002e050700e4
:102914001000200001002000ec0107000e00e80078
:10292400104078000080fb00760207002700370083
:102934000e00e80010407800e24f500010003a000a
:1029440063004700104078000004a2000004e00087
:102954000b00320000a02600810120001a050700a8
:10296400a000200001002000d80107000e00e800ac
:10297400104078000080fb0062020700130037005b
:102984000e00e80010407800e34f50000f003a00ba
:1029940063004700104078000004a2000004e00037
:1029a4000a00320000a0260081012000060507006d
:1029b4004006200001002000c40107000e00e800ca
:1029c400104078000080fb004e0207000e80e800f3
:1029d400104078000004e0004c0032001100200098
:1029e40064004700010878006000b80066014700f1
:1029f4000089be0036003700660047001000be00a4
:102a0400b20107006000b800660147000089be00fb
:102a1400180037000010270021002000ea040700f6
:102a24006400470090007800400620000001780010
:102a3400110009008200d8008000fd000000e000c1
:102a440007003a0020020700660147001201be0099
:102a54000200400083804800660147000089be00f0
:102a640064004700100078008000e800640047001c
:102a7400010878001e80fb00370207004106200091
:102a84000180b90000007800e4004700910078005c
:102a9400810f5000dfff3d00660047001001be00bb
:102aa400f0ff2f0001002000800f5100818f59009a
:102ab40004003600f0ff2f000100200066014700eb
:102ac4000089be001100200064004700010878005e
:102ad40010168000640060000000e000c6ff3200b1
:102ae4000000000010168000640060000000e00098
:102af400fcff3a008040eb000e80e80001487800bb
:102b040000a0260081012000af040700170407007d
:102b14000004e00000ff3200f903070031c5b300f0
:102b2400814f5000fefe3a0076004700a1002000cd
:102b340018020700000220000e004000f6004700c3
:102b4400811f780051002000811f78000133290083
:102b5400811f78002df70700e6875700a0022000a8
:102b64000e004000f6004700811f7800410020005d
:102b7400811f780001332900811f780023f70700a3
:102b8400e6875700400320000e004000f60047008f
:102b9400811f780011002000811f78000133290073
:102ba400811f780019f70700e6875700e00320002b
:102bb4000e004000f6004700811f780051002000fd
:102bc400811f780001332900811f78000ff7070067
:102bd400e6875700800420000e004000f6004700fe
:102be400811f780011002000811f78000133290023
:102bf400811f780005f70700e687570020052000ad
:102c04000e004000f6004700811f780031002000cc
:102c1400811f780001332900811f7800fbf607002b
:102c2400e6875700000220000e00400051332900bf
:102c340030f707000000e00003003a001002200013
:102c440029f70700f3003700a00220000e0040001f
:102c5400b133290027f707000000e00033003a00f1
:102c6400c00520000e004000f6004700e48040004c
:102c7400811f780011002000811f78000133290092
:102c8400811f7800e1f60700e6875700c0052000a1
:102c94000e0040009040780000c3b30080cf500085
:102ca4001f003400c00520000e0040009040780052
:102cb40030c3b30080cf500019003c00c005200091
:102cc4000e004000e2f60700e30f500005003a0052
:102cd400300020008b0107001002200002f70700db
:102ce400cc003700c00520000e004000d8f60700d5
:102cf400e20f500005003a00200020008101070087
:102d040010022000f8f60700c2003700100020006f
:102d14007c01070010022000f3f60700bd00370015
:102d24001000200077010700ba003700400320009c
:102d34000e00400001342900eef607000000e00018
:102d440022003a00d00520000e004000f6004700a3
:102d54008100e800811f780041002000811f780075
:102d640001332900811f7800a8f60700e687570081
:102d7400d00520000e004000b5f607000000e0007a
:102d84000f003400d00520000e004000b0f607000c
:102d9400f1702200810f500009003c00d005200092
:102da4000e004000aaf60700800078006c0047007f
:102db4000108780010022000cbf6070095003700c8
:102dc40010022000c8f6070092003700e00320003c
:102dd4000e00400021342900c6f607000000e00080
:102de4000e003a006000b8006e0147000089be0082
:102df400350107006e0147000089be006e004700e0
:102e04001000be00809fbe0080342900801f78001f
:102e140071f60700e68757007e0037008004200023
:102e24000e00400001352900b2f607000000e00062
:102e34006c003a006000b800720147000089be00cf
:102e4400100620000e004000f60047008100e80054
:102e5400811f780041002000811f78000133290080
:102e6400811f780069f60700e687570010062000e6
:102e74000e00400090407800f0c2b30080cf5000b4
:102e840057003400100620000e00400090407800e7
:102e940090c3b30080cf500051003c0020062000b6
:102ea4000e00400090407800f0c2b30080cf500084
:102eb4004b003400200620000e00400090407800b3
:102ec40090c3b30080cf500045003c003006200082
:102ed4000e00400090407800f0c2b30080cf500054
:102ee4003f003400300620000e004000904078007f
:102ef40090c3b30080cf500039003c00400620004e
:102f04000e00400090407800f0c2b30080cf500023
:102f140033003400400620000e004000904078004a
:102f240090c3b30080cf50002d003c008000eb0024
:102f34006a004700010878001f0037000b030700f0
:102f44000004e0000d003200ed02070031c5b300bb
:102f5400814f500009003a00e902070031c5b3006f
:102f6400814f500005003a0020352900801f780069
:102f740019f607008f87e90016003700d200070012
:102f8400720147000089be00720047001000be00b5
:102f9400809fbe0060352900801f78000ef6070070
:102fa400e68757006a004700100078008000e800b8
:102fb4006a00470001087800100620000e00400057
:102fc40023f60700ea00470091007800810f5000c3
:102fd400daff3c001002200043f607000d00370022
:102fe40011003700200520000e004000c1352900e3
:102ff40040f607000000e00005003a000036290012
:10300400801f7800f4f507008f87e900010037007e
:103014000500370060362900801f7800eef50700b0
:103024008f87e900bffd3700befd37000000fa00be
:10303400cc62a90090c0b3008c02070000c0eb0072
:103044008a020700cc62a800cc62a900a0c0b30029
:103054008602070050c0b30084020700cc62a800b7
:10306400cc62a900b0c0b3008002070040c0b30026
:103074007e020700cc62a800cc62a900c0c0b300e5
:103084007a02070010c0b30078020700cc62a800df
:10309400cc62a900f0c0b3007402070010c0b300f2
:1030a40072020700cc62a800cc62a900f0c0b30091
:1030b4006e0207000040eb006c020700cc62a8001f
:1030c400700007000080fa00000006000600fa0005
:1030d4000e81e8000089be006a000700500020004d
:1030e400000f780014003700cc62a9001e0078009d
:1030f400004078005d0207000e80e8001000be006a
:10310400a200200003002000b0f507000040780072
:1031140056020700cc62a8000e80e8001000be0032
:10312400a20020000300200098f507000e81e800ab
:103134000089be001e0fe9000e80e8001000be00ea
:10314400e00f5000e08f5800e7ff3a009e0078003f
:10315400658050000000e000e3ff3d000080fa00bd
:10316400000006000800fa008e81e8008089be0095
:103174006600470002487800420007005000200023
:10318400000f780014003700cc62a9001e007800fc
:1031940000407800350207000e80e8001000be00f1
:1031a400a20020000300200088f5070000407800fa
:1031b4002e020700cc62a8000e80e8001000be00ba
:1031c400a20020000300200070f507000e81e80033
:1031d4000089be001e0fe9000e80e8001000be004a
:1031e400e00f5000e08f5800e7ff3a009e0078009f
:1031f400658050000000e000e3ff3d0066004700ea
:10320400104078000004e0000300320090c4b300d2
:10321400050007000200370070c4b3000200070075
:103224000080fa00000006000200fa00004f780057
:10323400cc62a90090c0b3000c0207000040eb0070
:103244000a020700cc62a800cc62a90010c0b30037
:1032540006020700702c29001040780003020700c2
:10326400cc62a800cc62a90090c0b300ff010700a3
:1032740000c0eb00fd010700cc62a8000080fa004a
:10328400000006000200fa0010002000000f780081
:1032940008003700cc62a9001e00780000407800c6
:1032a400f2010700f0c0b300f0010700cc62a800ef
:1032b4001e0fe8001e007800e40f5000f5ff3400f4
:1032c4000080fa00000006000400fa006000b80064
:1032d400008fbe00cde2a9000000eb001b01070037
:1032e4008000eb00008fbe00cde2a80000202e007d
:1032f40041002000b40207001e00be000080fa0056
:10330400000006000200fa00000f78001e0078009a
:10331400e10f500003003a00cdc2a900cd82a900fc
:103324000b0037001e007800e20f500003003a0043
:10333400cdc2a800cd82a900050037001e00780088
:10334400e30f500002003a00cdc2a900cd82a800cc
:103354000080fa00000006000200fa00000f780066
:103364001e007800e20f500002003a0050002000d6
:10337400060037001e007800e30f500002003a00f8
:10338400a000200001003700100020000080fa0097
:10339400000006000600fa000e81e800000978002b
:1033a40064004700010878000e80e800100f7800e0
:1033b400d30107008e80e8009100780080487800ef
:1033c4000e80e8001000780010407800e84f5000ac
:1033d4000f003a000e80e800100078009e0f5000a5
:1033e4000b00360064004700100078008000e800fd
:1033f40064004700010878000e80e800100078009f
:103404008000e9000e80e80001087800160037000b
:103414000e80e8001000780010407800ea4f500059
:10342400100032000e80e800100078001040780090
:10343400ed4f5000110032000e80e80010007800bb
:103444008000e8000e80e80001087800640047006e
:10345400100078008000e90064004700010878004b
:1034640001003700000000006400470010007800ed
:10347400e10f5000ceff3c000100370000000000c7
:103484000e80e800900078000040eb00804878004f
:103494001e0078000080fa00000006000000fa0018
:1034a40000762000101288001000200020128800ee
:1034b400c0002800001288000080fa000000060006
:1034c4000400fa00000f78000e80e800010878007c
:1034d4000000000000128000620060000000e000b4
:1034e400fcff3a001e0078001000780040128800ab
:1034f4000000000001128000000220000080600033
:103504000000e000fbff3a000e80e80010007800a5
:1035140041128000010878000080fa0000000600d3
:103524001800fa00f201470080097800740047008f
:103534000108780076004700020878000000eb00dc
:10354400000f78008000eb000e80e800010878008e
:103554008000eb006e004700010878008000eb005b
:103564007000470001087800210020006c0047002b
:103574000108780074004700100078008000d10032
:1035840074004700010878007200470010007800ba
:103594000000e00007003a008000eb006a004700ea
:1035a40001087800f0004700640047000108780033
:1035b400060037006a004700ec0047001108780055
:1035c40064004700f20047001108780076004700c5
:1035d400100078000000e00007003a008000eb00d3
:1035e4006800470001087800ee00470066004700c5
:1035f400010878000700370068004700ec00470026
:103604001108780066004700f600470011087800aa
:103614000000000000128000620060000000e00072
:10362400fcff3a00250037000012800062006000b1
:103634000000e0000c003a0064004700100078002d
:103644001000780040128800640047009000780061
:103654006a00470010007800808040006400470042
:10366400010878001e0fe80001128000000220000b
:10367400008060000000e00010003a00660047008f
:1036840010007800411280000108780066004700ad
:1036940090007800680047001000780080804000a7
:1036a40066004700010878000e80e80010007800ea
:1036b4008000e8000e80e8000108780074004700ec
:1036c400100078009e007800808f5000d6ff3900eb
:1036d4001500370001128000000220000080600005
:1036e4000000e00010003a00660047001000780077
:1036f40041128000010878006600470090007800bd
:103704006800470010007800808040006600470091
:10371400010878000e80e800100078008000e800be
:103724000e80e800010878000e80e8009000780020
:103734007400470010007800808f5000e5ff3900c6
:103744001e0078000080fa00000006000400fa0061
:103754008e80e800800878008e0078000e80e800f3
:1037640057ff07001e0078000080fa0000000600e2
:103774000600fa00000f78000e80e80001087800c7
:103784006400470002087800640047009000780055
:103794001e007800010178008e80e8009100780016
:1037a4005fff07000080fa00000006000000fa0036
:1037b400001280000080fa00000006000000fa00f9
:1037c4000036200010138800100020002013880009
:1037d400c0002800001388000080fa0000000600e2
:1037e4000400fa00000f78000e80e8000108780059
:1037f4000000000000138000620060000000e00090
:10380400fcff3a001e007800104078000080fb00a6
:103814004013880000000000011380000002200013
:10382400008060000000e000fbff3a0040138000cd
:10383400004078008e80e80091007800804878008d
:103844000080fa00000006001800fa00f2014700a8
:10385400800978007400470001087800760047006a
:10386400020878000000eb00000f78008000eb00f5
:103874000e80e800010878008000eb006e0047002d
:10388400010878008000eb00700047000108780010
:10389400110020006c004700010878007200470006
:1038a400100078000000e00007003a008000eb0000
:1038b4006a00470001087800f000470064004700f0
:1038c40001087800060037006a004700ec00470052
:1038d4001108780064004700f200470011087800de
:1038e40076004700100078000000e00007003a006e
:1038f4008000eb006800470001087800ee004700f4
:103904006600470001087800070037006800470098
:10391400ec0047001108780066004700f6004700f5
:1039240011087800000000000013800062006000ad
:103934000000e000fcff3a0027003700001380007d
:10394400620060000000e0000d003a0064004700df
:1039540010007800104078000080fb0040138800bd
:1039640064004700900078006a0047001000780067
:103974008080400064004700010878001e0fe800c2
:103984000113800000022000008060000000e000bd
:1039940011003a004013800000407800e600470020
:1039a4009100780080487800660047009000780015
:1039b40068004700100078008080400066004700df
:1039c400010878000e80e800100078008000e8000c
:1039d4000e80e800010878007400470010007800a9
:1039e4009e007800808f5000d4ff39001600370005
:1039f4000113800000022000008060000000e0004d
:103a040011003a004013800000407800e6004700af
:103a140091007800804878006600470090007800a4
:103a2400680047001000780080804000660047006e
:103a3400010878000e80e800100078008000e8009b
:103a44000e80e800010878000e80e80090007800fd
:103a54007400470010007800808f5000e4ff3900a4
:103a64001e0078000080fa00000006000400fa003e
:103a74008e80e800804878000e80e8008e00780090
:103a840057ff07001e4078000080fa00000006007f
:103a94000600fa00000f78000e80e80001087800a4
:103aa40064004700020878006400470010017800b1
:103ab4000e80e800900078001e00780062ff070086
:103ac4000080fa00000006000000fa0000138000e5
:103ad4000080fa00000006000000fa0080002000c8
:103ae400001188002222ef00f00c20004011880011
:103af40021e2a8002342a8000080fa00000006008a
:103b04000000fa0000000000101180006100600055
:103b14000000e000fcff3200101180006200600031
:103b24000000e000010032002222a90030118000d0
:103b3400004078000080fa00000006000200fa004d
:103b4400004f7800000000001111800000202000c8
:103b5400008060000000e000fbff3a001e80fb00d4
:103b6400201188000080fa00000006000000fa001e
:103b74001011800000407800614060000080fb006c
:103b840000f0a7000000ea000000ea004f00de0099
:103b9400004078000080fa00000006000000fa00ef
:103ba4001111800000202000008060000000e0006f
:103bb40007003a00111180000040200000806000de
:103bc4000000e00002003200100020000100370075
:103bd4000000eb00004078000080fa0000000600be
:103be4000000fa00101180004800de00614060000f
:103bf4000080fb0000f0a7000000ea000000ea00db
:103c04004f00de00004078000080fa00000006004b
:103c14000000fa00101180000080fa000000060085
:103c24000000fa0021e2a8002342a8000080fa0064
:103c3400000006000000fa0021e2a9002342a900c6
:083c44000080fa0000000600f8
:020000040000fa
:103c4c00200800000200000002000000ffff00003e
:103c5c000008000020000000000000002208000006
:103c6c004200000002000000260828000828080076
:103c7c000100030000000000000000000000000034
:103c8c000000c6000c00000000000000009c0800b2
:103c9c009204000000000000000000000000000082
:103cac000000000000000000000000000000000008
:103cbc0000000000000000000000000000000000f8
:103ccc00640800001c00000002000000286e69005f
:103cdc006c29000068076c00094c83006a90740022
:103cec00a07ac00000806800880084006c8200000c
:103cfc0081000000800800000200000000000000ad
:043d0c0000000000b3
:020000040000fa
:103d10000000fa0000002300203a88004827ef0046
:103d20004e27ef007027ef007227ef007427ef0097
:103d30007627ef001200200080072000a109200054
:103d400033742000804978008149780082497800e6
:103d50000001eb00600420007105200023742000a6
:103d60008049780081497800824978000080fa0013
:103d7000000006000000fa00c422ef0080082800be
:103d8000601688007009200000168800704120002d
:103d9000401688005620ef005820ef005a20ef0010
:103da0006e20ef007020ef007220ef00c622ef00bf
:103db000ce22ef00800020000027880000012000b4
:0c3dc000102788000080fa0000000600b8
:020000040000fa
:103dcc00f03fb1000180b10006003500ee030900a0
:103ddc0000000000403fb1000180b100fbff3d003e
:103dec001000b000203fb000020035000080090038
:083dfc000000000000000600b9
:020000040000fa
:103e04000200fa00000f78009e007800014188004b
:103e1400ffff37000000fa000080200080077800d0
:103e240080812000000188000080fa000000060064
:103e34000000fa00ceff0700b4ff070005000700ea
:103e440096fd07005dfe070023ff07000080fa00cf
:103e5400000006000000fa000080fa0000000600de
:020000040000fa
:0200000401f009
:04000000ffffff00ff
:020000040000fa
:0200000401f009
:04000800ffffff00f7
:020000040000fa
:0200000401f009
:04000c00f9ff0000f8
:020000040000fa
:0200000401f009
:04001000bbff000032
:020000040000fa
:0200000401f009
:040014005fff00008a
:020000040000fa
:0200000401f009
:04001800ffff0000e6
:020000040000fa
:0200000401f009
:04001c00ffff0000e2
:020000040000fa
:0200000401f009
:04002000ffff0000de
:00000001FF
