:020000040000fa
:080000000002040000000000f2
:020000040000fa
:0400080036040000ba
:020000040000fa
:04000c00b403000039
:020000040000fa
:04001000f6030000f3
:020000040000fa
:04001400d403000011
:020000040000fa
:0400180016040000ca
:020000040000fa
:04001c0036040000a6
:020000040000fa
:0400200036040000a2
:020000040000fa
:04002400360400009e
:020000040000fa
:04002800360400009a
:020000040000fa
:04002c003604000096
:020000040000fa
:040030003604000092
:020000040000fa
:04003400360400008e
:020000040000fa
:04003800360400008a
:020000040000fa
:04003c003604000086
:020000040000fa
:040040003604000082
:020000040000fa
:04004400360400007e
:020000040000fa
:04004800360400007a
:020000040000fa
:04004c003604000076
:020000040000fa
:040050003604000072
:020000040000fa
:04005400360400006e
:020000040000fa
:04005800360400006a
:020000040000fa
:04005c003604000066
:020000040000fa
:040060003604000062
:020000040000fa
:04006400360400005e
:020000040000fa
:04006800360400005a
:020000040000fa
:04006c003604000056
:020000040000fa
:040070003604000052
:020000040000fa
:04007400360400004e
:020000040000fa
:04007800360400004a
:020000040000fa
:04007c003604000046
:020000040000fa
:040080003604000042
:020000040000fa
:04008400360400003e
:020000040000fa
:04008800360400003a
:020000040000fa
:04008c003604000036
:020000040000fa
:040090003604000032
:020000040000fa
:04009400360400002e
:020000040000fa
:04009800360400002a
:020000040000fa
:04009c003604000026
:020000040000fa
:0400a0003803000021
:020000040000fa
:0400a400dc0200007a
:020000040000fa
:0400a800360400001a
:020000040000fa
:0400ac003604000016
:020000040000fa
:0400b0003604000012
:020000040000fa
:0400b400360400000e
:020000040000fa
:0400b800360400000a
:020000040000fa
:0400bc003604000006
:020000040000fa
:0400c0003604000002
:020000040000fa
:0400c40036040000fe
:020000040000fa
:0400c80036040000fa
:020000040000fa
:0400cc0036040000f6
:020000040000fa
:0400d00036040000f2
:020000040000fa
:0400d40036040000ee
:020000040000fa
:0400d80036040000ea
:020000040000fa
:0400dc0036040000e6
:020000040000fa
:0400e00036040000e2
:020000040000fa
:0400e40036040000de
:020000040000fa
:0400e80036040000da
:020000040000fa
:0400ec0036040000d6
:020000040000fa
:0400f00036040000d2
:020000040000fa
:0400f40036040000ce
:020000040000fa
:0400f80036040000ca
:020000040000fa
:0400fc0036040000c6
:020000040000fa
:0401000036040000c1
:020000040000fa
:0401040036040000bd
:020000040000fa
:0401080036040000b9
:020000040000fa
:04010c0036040000b5
:020000040000fa
:0401100036040000b1
:020000040000fa
:0401140036040000ad
:020000040000fa
:0401180036040000a9
:020000040000fa
:04011c0036040000a5
:020000040000fa
:0401200036040000a1
:020000040000fa
:04012400360400009d
:020000040000fa
:040128003604000099
:020000040000fa
:04012c003604000095
:020000040000fa
:040130009e0300002a
:020000040000fa
:04013400360400008d
:020000040000fa
:040138003604000089
:020000040000fa
:04013c003604000085
:020000040000fa
:040140003604000081
:020000040000fa
:04014400360400007d
:020000040000fa
:040148003604000079
:020000040000fa
:04014c003604000075
:020000040000fa
:040150003604000071
:020000040000fa
:04015400360400006d
:020000040000fa
:040158003604000069
:020000040000fa
:04015c003604000065
:020000040000fa
:040160003604000061
:020000040000fa
:04016400360400005d
:020000040000fa
:040168003604000059
:020000040000fa
:0402080036040000b8
:020000040000fa
:04020c00b403000037
:020000040000fa
:04021000f6030000f1
:020000040000fa
:04021400d40300000f
:020000040000fa
:0402180016040000c8
:020000040000fa
:04021c0036040000a4
:020000040000fa
:0402200036040000a0
:020000040000fa
:04022400360400009c
:020000040000fa
:040228003604000098
:020000040000fa
:04022c003604000094
:020000040000fa
:040230003604000090
:020000040000fa
:04023400360400008c
:020000040000fa
:040238003604000088
:020000040000fa
:04023c003604000084
:020000040000fa
:040240003604000080
:020000040000fa
:04024400360400007c
:020000040000fa
:040248003604000078
:020000040000fa
:04024c003604000074
:020000040000fa
:040250003604000070
:020000040000fa
:04025400360400006c
:020000040000fa
:040258003604000068
:020000040000fa
:04025c003604000064
:020000040000fa
:040260003604000060
:020000040000fa
:04026400360400005c
:020000040000fa
:040268003604000058
:020000040000fa
:04026c003604000054
:020000040000fa
:040270003604000050
:020000040000fa
:04027400360400004c
:020000040000fa
:040278003604000048
:020000040000fa
:04027c003604000044
:020000040000fa
:040280003604000040
:020000040000fa
:04028400360400003c
:020000040000fa
:040288003604000038
:020000040000fa
:04028c003604000034
:020000040000fa
:040290003604000030
:020000040000fa
:04029400360400002c
:020000040000fa
:040298003604000028
:020000040000fa
:04029c003604000024
:020000040000fa
:0402a000380300001f
:020000040000fa
:0402a400dc02000078
:020000040000fa
:0402a8003604000018
:020000040000fa
:0402ac003604000014
:020000040000fa
:0402b0003604000010
:020000040000fa
:0402b400360400000c
:020000040000fa
:0402b8003604000008
:020000040000fa
:0402bc003604000004
:020000040000fa
:0402c0003604000000
:020000040000fa
:0402c40036040000fc
:020000040000fa
:0402c80036040000f8
:020000040000fa
:0402cc0036040000f4
:020000040000fa
:0402d00036040000f0
:020000040000fa
:0402d40036040000ec
:020000040000fa
:0402d80036040000e8
:020000040000fa
:0402dc0036040000e4
:020000040000fa
:0402e00036040000e0
:020000040000fa
:0402e40036040000dc
:020000040000fa
:0402e80036040000d8
:020000040000fa
:0402ec0036040000d4
:020000040000fa
:0402f00036040000d0
:020000040000fa
:0402f40036040000cc
:020000040000fa
:0402f80036040000c8
:020000040000fa
:0402fc0036040000c4
:020000040000fa
:0403000036040000bf
:020000040000fa
:0403040036040000bb
:020000040000fa
:0403080036040000b7
:020000040000fa
:04030c0036040000b3
:020000040000fa
:0403100036040000af
:020000040000fa
:0403140036040000ab
:020000040000fa
:0403180036040000a7
:020000040000fa
:04031c0036040000a3
:020000040000fa
:04032000360400009f
:020000040000fa
:04032400360400009b
:020000040000fa
:040328003604000097
:020000040000fa
:04032c003604000093
:020000040000fa
:040330009e03000028
:020000040000fa
:04033400360400008b
:020000040000fa
:040338003604000087
:020000040000fa
:04033c003604000083
:020000040000fa
:04034000360400007f
:020000040000fa
:04034400360400007b
:020000040000fa
:040348003604000077
:020000040000fa
:04034c003604000073
:020000040000fa
:04035000360400006f
:020000040000fa
:04035400360400006b
:020000040000fa
:040358003604000067
:020000040000fa
:04035c003604000063
:020000040000fa
:04036000360400005f
:020000040000fa
:04036400360400005b
:020000040000fa
:040368003604000057
:020000040000fa
:100400006f8a20000eff20000e018800000000000f
:10041000000020000000e000020032000001200087
:100420002002880014000700520107000000e000cd
:1004300003003a00a0b821000100200002003700ac
:100440000000200001002000810f70000100320038
:1004500014000700000020000000e000020032004d
:100460000000020000000000b614020000000000be
:100470000040da000000fe004440a900c004200053
:100480000000e0000300320000002000a00188000e
:100490004440a800000006008a1f78008b1f7800e7
:1004a0000000060091018800800478000000eb0045
:1004b0001a003700e284440032a0b4009905ba0063
:1004c000e284440032a0b4009906ba00e2844400f9
:1004d00032a0b4000006eb00476fde00fd07b2005b
:1004e000636ce10003003a00ebff07000000eb0043
:1004f0000a003700606ce10004003a00005deb0088
:100500008b05e900fdff3e00040037006168e10053
:10051000010032000086eb000b00070019c7ba008b
:100520001905ba000e04e00003003a000a00e000da
:10053000e0ff3a0000000600fe07b2009e018800be
:100540008a047800f5ff3700395dba008b05e900b1
:100550000c003200295dba008b05e900080032006a
:100560000c00e00003003a00e284440032a0b40032
:10057000f5ff370019ddba008b05e900faff3a00f4
:100580008904e800e184440032a0b40000000600c1
:10059000000000000000000000000000000000005b
:1005a000000000000000000000000000000000004b
:1005b00000000000000000003600f800809fbe0030
:1005c000829fbe00849fbe00869fbe000000fa008e
:1005d000e0408000000001003140800020408000a9
:1005e000808f500002003a0097e0a9001900370000
:1005f00087e0a9001000370030408000904078006c
:100600008180fb00a11188000000e80030408800d4
:100610003140800020812000808f500002003a008d
:1006200090802000304088003140800020408000d1
:10063000808f5000060032009111800000202000c1
:10064000008060000000e000ebff32000100370096
:10065000000000000080fa004f03be004f02be0001
:100660004f01be004f00be003600f90000400600fa
:100670003600f800809fbe00829fbe00849fbe00af
:10068000869fbe000000fa00f040800000000100dc
:1006900087c0a9001e00370001408000b011800013
:1006a000004078008048780001408000a081200050
:1006b000808f500009003200004080000000e800f8
:1006c00011408000810f5000040032000040800083
:1006d0000000e800004088000d0037000140800065
:1006e000a0812000808f500007003a001140800058
:1006f00020812000808f50000300320020812000e4
:10070000004088000200370010c0b30008e8b700be
:1007100090118000610060000000e000deff3a0000
:100720000080fa004f03be004f02be004f01be0022
:100730004f00be003600f90000400600801f780020
:100740000000fa0090118000620060000000e000ec
:10075000010032003222a9008c40a9000080fa007a
:100760004f007800004006003600f800809fbe0071
:10077000829fbe00849fbe00869fbe000000fa00dc
:100780008020a9000000eb005a0c07000080fa004e
:100790004f03be004f02be004f01be004f00be001f
:1007a0003600f900004006003600f800809fbe00c9
:1007b000829fbe00849fbe00869fbe000000fa009c
:1007c000510c07008040a90010002000490c0700d0
:1007d0000080fa004f03be004f02be004f01be0072
:1007e0004f00be003600f900004006003600f80059
:1007f000809fbe00829fbe00849fbe00869fbe0079
:100800000000fa008060a90020002000390c0700d9
:100810000080fa004f03be004f02be004f01be0031
:100820004f00be003600f900004006003600f80018
:10083000809fbe00829fbe00849fbe00869fbe0038
:100840000000fa008080a90030002000290c070079
:100850000080fa004f03be004f02be004f01be00f1
:100860004f00be003600f900004006000040da00ec
:100870000000fe00ec8747008e1f78006c87570051
:1008800044002000041f7800000f78006c87570098
:1008900002afbe00e1bf9f006c805700fe0607005c
:1008a0001e00be004f077800cf00b1000000060018
:1008b000ec8747008e1f780011002000a1bf9f0029
:1008c0006c875700002f78006c805700f4060700f3
:1008d0001e0078004f077800cf00b100000006002e
:1008e0000a00fa00e401470080097800660047002a
:1008f0000108780068004700020878000e80e800d0
:10090000e6004700110878000000eb00000f7800b7
:100910000f003700000000003f0a07000004a2009b
:100920000004e000fcff3a000e80e80010007800b0
:10093000104078008e80e800910078000101e80006
:100940008e80e80082087800130a07001e0fe80076
:1009500068004700100078009e007800808f5000eb
:10096000ecff390068004700100078000080fa00b2
:100970000000060000000500811f78000100e00073
:1009800002003d0060001000e08018000300e0005d
:1009900002003d0060011100e08119000500070020
:1009a0004f00e00002003b0060001000e0801800f3
:1009b00000000600020007000400be000000060060
:1009c0006022b800060220000000d0008180d20022
:1009d0000482d2008582d2000000a00002025200f0
:1009e00083825a00030031000202420083824a00df
:1009f0000000a1000603e900f3ff3a000000060032
:100a00000000fa00cfb897006881570010428000bc
:100a100010007800420207000080fa000000060083
:100a200067000700bf000700f30007006e01070022
:100a3000960137000000fa00cfb897006881570090
:100a4000450207000080fa0000000600ea003700b7
:100a5000800078001000200002022000828f5000e9
:100a600004003200e9805000e48f5000010036009d
:100a70000000eb0000000600889fbe008a1f78007f
:100a800080047800090478008804780039457800eb
:100a90000a00fb00eeff07000000e000f9ff3a004b
:100aa000b0c2b300804f550005003200d0c2b30081
:100ab0008000eb00804f550005003a00020037002f
:100ac0008000eb0001003700110020000804e8005e
:100ad0000000eb00030037006a02b9000200520078
:100ae0000003b0003801fb0003fd2f0082814100ac
:100af000e98f5100f8ff36000100e00001003a00e4
:100b00000000ea004f0578004f04be000000060018
:100b10001142800091007800a80437000000e9002d
:100b20008000eb00004588001145880000000600a9
:100b3000d2f2270053c924000045800011458000ef
:100b40004f06070061014000e0814800024588002f
:100b5000134588004118de00010020000000060057
:100b6000810178000002780030417800b14f5100d7
:100b700002003a000204e000f9ff3a009480fb0012
:100b80001380fb000080500000000600114280002e
:100b900091007800db030700110020000000e00056
:100ba000050035001042800090007800a000200071
:100bb00082040700cf00de000100ea00000006000a
:100bc000ec874700889fbe008a9fbe008c9fbe00b6
:100bd0008e1f780000067800010478001807900046
:100be0002805900098067800cdb79f00b8059000c2
:100bf0003202be002203be000400be000601be0099
:100c00004f18de006011b8008000eb00d0b79f00e5
:100c1000e1b79f00f2b79f0083bf9f008004780078
:100c20000900e000060032006000b8006011b80062
:100c3000040250008582580006035900878359003a
:100c40000e00e000020035000d10a100cdb79f009e
:100c50000900e00005003a004fb097000028a3000b
:100c600002003a000038a300020032008a00e900c6
:100c7000010037008a007800f8815700a2002000a8
:100c800008007800860007000900e00003003a0031
:100c9000cfb097000128a300080032000000e9004f
:100ca00000814500b1c2b3000900e000010032003c
:100cb000d1c2b30001497800050037000138a30014
:100cc000030032000000e90001c2b3008175780022
:100cd000480190000201e9000001510080804500b8
:100ce0004fb297008a0178000c007800b20107002b
:100cf0009c0090000188a30004003200980090003e
:100d0000810f500001003d00010078004f0778007e
:100d10004f06be004f05be004f04be00cf00b1001d
:100d2000000006000200fa00889fbe008a9fbe00f5
:100d30000005780001047800020078001801900096
:100d4000a805900098007800b1bf9f00b8049000fb
:100d50000200e000020035000110a100b1bf9f00b9
:100d6000ea815700820020008b0078003002be002c
:100d70002003be0008007800490007003fb9970033
:100d8000f0006100030032000000e90001c3b3007d
:100d9000817478003fb99700e800610003003200d9
:100da0000000e90001c2b30081747800480190009e
:100db0000201e90000015100808044003fba970021
:100dc0008b0178000a0078007b0107009a009000f0
:100dd0000188a3000400320098009000810f5000a9
:100de00001003d00010078004f05be004f04be0029
:100df0000080fa0000000600ea874700889fbe00d6
:100e00008a9fbe008e1f78000004780003007800df
:100e10007287570084e2260055c72600049fbe0053
:100e2000c3962200030f78006c875700004feb0039
:100e300011059000a1049000910578000200e000e7
:100e40000200320002077800010037007287570065
:100e50000000e00002003a000e007800df03070007
:100e60000a00e000030035008a0f50000100360040
:100e70000a0078000b0278008901780000017800f0
:100e80008e007800080078004b0107004f077800bb
:100e90004f05be004f04be00af00b10000000600c9
:100ea000f4874700889fbe008a9fbe008c9fbe00cb
:100eb0008e1f78000605be000404be0081bf9f009f
:100ec00082b79f00f3b79f00b0009000e1b79f008a
:100ed0001301780092b79f009006900040069000a2
:100ee0000c06e9000d00e00001003d001d0020009f
:100ef000efb197000c8041000048eb001e0020007d
:100f00001f0037000c06e9000fb09700cf80de000d
:100f10006109b900a0b79f00b1b79f00c2b79f0099
:100f2000d3b79f000203be000002be000800be004f
:100f30000a01be000506070000077800efb0970021
:100f40000c80400003c3b300034847008d06e9004e
:100f50000fb897000000e90080bf9f002fb29700f4
:100f6000bfb297004fb39700dfb397000800be00f1
:100f70000a01be00ee0507000205be000004be0027
:100f80000c00e0000d003200e00f5400e08f5c0028
:100f9000e00f5d00e08f5d00daff3a000d00e00039
:100fa000d8ff3c008fb897000100e0000300340038
:100fb0001fb197000218a300d2ff3a000e00e00014
:100fc00002003a00ffb197001340a1000c00780026
:100fd0004f0778004f06be004f05be004f04be000d
:100fe0004f01b100000006000200fa00889fbe0019
:100ff0008a9fbe0080047800010478000200780017
:10100000180190002805900098007800b1bf9f005b
:10101000b80590000200e000020035000110a100b8
:10102000b1bf9f00ea815700a20020008a0078002b
:101030003002be002003be000800780098ff0700c1
:10104000480190000201e900000151008080450044
:101050003fba97008a01780009007800d60007009f
:10106000990090000188a3000400320098009000cd
:10107000810f500001003d00010078004f05be00c7
:101080004f04be000080fa0000000600fa87470007
:10109000889fbe008a9fbe008c9fbe008e1f780076
:1010a000800478000104780082057800180190001f
:1010b0002805900018077800b80090000200e000b2
:1010c000020035000e10a1000100370012002000c0
:1010d00070006700e0b79f00090032003b02be00cd
:1010e0002b03be00e00f5200e08f5a00e00f5b00c0
:1010f000e08f5b00020032008a86e90001003700c1
:101100008a067800e8026700f5b79f000100320008
:101110008d06e9003b02be002b03be00e4af9f003a
:10112000f5af9f0086b79f0097b79f0048069000d5
:101130000c06e9000c8040000048eb00efb297007d
:101140007fb297008903780081047800d8af9f00b0
:10115000020478008bbf9f008a0578000345780061
:101160002a0037000c06e9006fab97006f006300a0
:10117000e90f500002003c000003b00001003700fe
:101180007005b0000a03fb001604b100f90f53000c
:101190000c003e00000378000650a0001606b100c7
:1011a000f90f530007003e00b4b79f00a5b79f009a
:1011b000c7b79f00c1030700cfb39700afb2970036
:1011c0003fb2970080747e000804e9008d06e900b4
:1011d0006fa89700ffa897000fb197009fb19700e5
:1011e000460020008301d1000281d3008180d3001a
:1011f0000080d3000603e900faff3a00e0af9f0049
:10120000f1af9f0082b79f0093b79f00e10f560098
:101210000f0036006fa89700ffa897000fb1970046
:101220009fb19700e00f5000e08f5800e00f590089
:10123000e08f5900cbff3a000800e000c9ff3c00f6
:101240000d00e000020034000e18a300c5ff3a00b4
:1012500089007800f4b79f00870478005fac97009e
:101260008a4178000b0578008fbd97000500e000eb
:10127000100032003b02be002b03be00e4af9f0013
:10128000f5af9f0086b79f0097b79f00e00f520011
:10129000e08f5a00e00f5b00e08f5b00050032003a
:1012a0000c06e90083707e000c06e90000c3b30061
:1012b00080707e00ffb297000500e000030032005e
:1012c0000c06e90000c2b30080707e004801900067
:1012d0000201e9000c0151008c8040000e027800f0
:1012e0008a01780009007800330007009900900017
:1012f0000188a3000400320098009000810f500084
:1013000001003d00010078004f0778004f06be0045
:101310004f05be004f04be00af01b1000000060043
:101320000200fa00881f780000047800e2bf9f00e6
:101330006481570008007800d201070098009000ef
:101340000148a300010032000080eb004f04780048
:101350000080fa0000000600820178000101780098
:10136000f1ff2700b5023700889fbe008a1f780072
:10137000800478004900900002047800800f540037
:101380000100360000047800080178006a854400f6
:101390001a007800070207001a004400000d7800c8
:1013a000e8844400990c14000048eb004f057800d5
:1013b0004f04be0000000600f2874700889fbe0071
:1013c0008a9fbe008c9fbe008e1f7800800478002c
:1013d0000105780002047800830578006107620047
:1013e00002003a008b0f5400080039000801780011
:1013f0008a00780009007800cb0207008b0f5400a8
:1014000002003900880578001e0037000886550064
:101410000c017800f00f5600010036000201200098
:10142000010220007e805700e90107008c06780049
:101430000500370002012000fe80570009007800f7
:10144000b9020700f0865600ef8f5600f9ff3e0004
:101450004461de0000ff2f000091b9000201460048
:10146000fe80570009007800af0207000e00e00080
:1014700004003a00080178008a007800090078002a
:10148000a90207000b0078004f0778004f06be0046
:101490004f05be004f04be002f01b1000000060042
:1014a00000000500000005000000050000017800b4
:1014b0000040eb008080fb0081804000a38820007a
:1014c00063c278000404e00003003a00b088200002
:1014d00060c078000000060092017800934f52002f
:1014e00004003a00b088200060c078000309e800da
:1014f000010037000040e800ea4f5000edff3600e1
:1015000000000600f6874700889fbe008a9fbe0045
:101510008c9fbe008e1f7800800478000104780044
:1015200083057800040678000000eb00c0b79f0038
:101530008080eb00d1b79f00e0b79f00f2b79f001b
:101540000008200080bf9f0098007800010078000c
:101550000005eb00010037000a05e8003041780083
:101560000204e0000300320053c2b300834f510075
:10157000f9ff3a000a00e000040032000a01780096
:101580000900780068020700180c45001807780069
:1015900050c2b3009e4f100033013a000e07e8001e
:1015a0000e0c780010003700cfb097000100a000ab
:1015b0000b003700cfb097000110a00008003700e3
:1015c000cfb097000120a00005003700cfb09700f2
:1015d0000130a00002003700cfb097000140a0000a
:1015e000c1b79f00000ce800180078009040780018
:1015f000b2c2b30082cf5000f1ff320007003c00be
:1016000002c2b30082cf5000f0ff320032c2b300fa
:1016100082cf500007003a00efff3700d2c2b3007c
:1016200082cf5000e0ff320002c3b30082cf5000ef
:10163000e0ff3200a2c2b30082cf50000d003a009a
:10164000000ce8001c80e900000e78001000780013
:10165000e0b79f000000e0000f003d00cfb0970012
:101660000100a200c1b79f000000ea00e0b79f00a0
:101670000900370000fd0700e0b79f0001003700b8
:10168000000ce800180078009000fb000103b10096
:10169000e98f5000faff36004fb097000008a30012
:1016a000020032000010a100c0b79f0018007800af
:1016b000e1c2b30090cf100016003a008000eb00aa
:1016c000d1b79f000000e800000c7800a1c2b30071
:1016d00090cf100006003a00000ce8001c80e900e2
:1016e000000e780010007800d0b79f000900370086
:1016f000e1fc0700d0b79f0001003700000ce800b4
:10170000180078009000fb000103b100e98f500041
:10171000faff36000800780064ff07008046780072
:10172000180078001000fb005d0207009106200001
:10173000810f50003800320012003c0041062000aa
:10174000810f5000340032000a003c0011062000d6
:10175000810f50002000320031062000810f500020
:101760009a00320051022000810f5000ae003a0072
:10177000a700370071062000810f5000aa003c002e
:101780008200370001072000810f50005c0032000a
:1017900007003c00e1062000810f50007400320079
:1017a000f1062000810f50009f003a0039003700f9
:1017b00051072000810f50002700320081072000d0
:1017c000810f50004200320031072000810f50008d
:1017d00095003a00850037008d80fb000c017800f1
:1017e00000fe2f000f0040003b0207000000e00059
:1017f0009c00320018007800000ce800904178004e
:1018000002fe2f000f014100f88057000900780008
:1018100024ff07000e0037008d80fb008c0178004c
:101820001200200000fe2f000f00400049020700b8
:101830000000e0008b003200180ce80002fe2f00d0
:101840000f014100f880570009007800dcfc070018
:1018500000054500840037008d80fb008c01780076
:101860000001eb0000fe2f000f00400039020700ce
:101870000000e0007b003200180ce80002fe2f00a0
:101880000f014100f880570009007800d6fd0700dd
:10189000efff37008d80fb008c0178000001eb002a
:1018a00000fe2f000f0040002a0207000000e000a9
:1018b0006c003200180ce80002fe2f000f014100fe
:1018c000f88057000900780016fd0700e0ff370098
:1018d0008d80fb008c0178000001eb0000fe2f00e2
:1018e0000f0040001b0207000000e0005d00320016
:1018f00018007800000ce8009041780016003700ce
:101900008c0178000001eb00010f200000fe2f0089
:101910000f0040000f0207000000e00051003200fd
:10192000180ce8000fb097009fb097002fb19700f8
:10193000bfb19700e00f5000e08f5800e00f590052
:10194000e08f590003003a008001eb00428820003c
:101950004000370083c7b30002fe2f000f01410093
:10196000f880570009007800c8fd0700b8ff37006d
:101970000b0145008d80fb008c01780000fe2f00dc
:101980000f0040004c020700360037008d80fb003e
:101990000c01780000fe2f000f004000ce01070070
:1019a0000000e0002f00320018007800000ce80072
:1019b0009041780002fe2f000f014100f88057008f
:1019c00009007800b7fe0700a1ff370000c8b30088
:1019d00080cf560023003a00180ce8001c80e90074
:1019e000000e7800104078000d00370000c8b300ea
:1019f00080cf56001b003a00180ce8001c80e9005c
:101a0000000e78008001eb00100178001100370013
:101a100001c8b30081cf560012003a00180ce8004c
:101a2000e0df9f000800370050c2b300e0df9f00f6
:101a30000e0c78000000eb00c0b79f00e0b79f00dd
:101a40008080eb00d1b79f0013002000e2fd2f0043
:101a50000f014100f880570009007800e6fc0700fc
:101a60007bff3700180ce8000a0078004f07780069
:101a70004f06be004f05be004f04be006f01b1000f
:101a8000000006008200fa00889fbe008a1f7800ce
:101a90000005780082047800c13f9f000004eb003d
:101aa000100037000902780088017800a2f72f00a3
:101ab0000f01410081f72f008f8040000a0078005d
:101ac00090fe070008004000880f500004003d0011
:101ad000b0042000204588000084eb00040037009b
:101ae000000478004f3897001004e000edff3a0042
:101af000080078004f0578004f04be000080fa000f
:101b000000000600889fbe008a1f780080047800cd
:101b10000105780009007800b00007000004780093
:101b20008a0178000801780011002000090078007f
:101b30000a000700800078000080eb00888f5000ca
:101b400001003a000000eb004f0578004f04be0092
:101b5000000006001000780061fb3700889fbe007f
:101b60008a9fbe00810478000204780009c5b9008c
:101b70000900e00001003a000004eb000a017800cf
:101b80008000780003007800f2ff070080007800f2
:101b90008a8f500003003200110009008980d800ac
:101ba00000047800080078004f05be004f04be0016
:101bb000000006008001780002003700b15978006b
:101bc0000201e9000200e000fcff3a00000006000c
:101bd000889fbe008a9fbe00800478000200e0005b
:101be0005a00320001407800814c78008281440024
:101bf000f1f99f00e20f5100540036009144980023
:101c0000a1449800e1f99f00d1f99f00e60f51002f
:101c10004e003600b1449800c1f99f00e80f510012
:101c20004a0036000905ea00630565000a8444009d
:101c30000a055100c1ff2f00010565000080fb006f
:101c40008000eb0012102000131020000c0207008f
:101c5000008cbe000a01440060b99f0071b99f006a
:101c6000e80f550039003600200498003104980030
:101c7000400498005104980020b99f0031b99f009a
:101c800040b99f0051b99f00f80f55002f00360052
:101c90006004980071049800000c9800110c9800e2
:101ca000200c9800310c9800400c9800510c9800c2
:101cb00020b19f0031b19f0040b19f0051b19f0002
:101cc00060b19f0071b19f0000b99f0011b99f00e2
:101cd00064016400780141000204440002055500db
:101ce0006011b8000203be000002be000403be0083
:101cf0006022b8000000720081807200020173004f
:101d0000838173000f00370008027800009abe003c
:101d1000029abe00009abe000292be00000c98001b
:101d2000110c9800220c9800330c9800400c98007d
:101d3000510c9800620c9800730c98000a02b100d4
:101d40000802b000ff0f5500efff3e0009007800c9
:101d50004f05be004f04be00000006000200fa005e
:101d60000001780001007800e2ff9f0090009000e1
:101d70000188a30006003200ea01400093007800c9
:101d8000825878000280fb00810978000900370042
:101d9000120020008f80e9006eff070080007800ad
:101da0000080eb000100e00002003200eff8970035
:101db0000180fb000080fa0000000600e7ff37000a
:101dc000000006008084200000000600fdff0700e0
:101dd0003042880020428800000006008000780021
:101de000040037003104e00002003a000000510016
:101df00000000600010178000108a300f9ff3a0085
:101e00008101780031017800f4ef2f0002024200d6
:101e10000281ea0002016200040828000401610056
:101e2000f7ff320083007800010178003104e00000
:101e3000fdff3a000000510000000600f287470055
:101e40008e1f780002027800030178000000e00095
:101e50000200320000077800010037007287570047
:101e60008002eb000100e000010032008102e90085
:101e700070805700060009000018eb0072805700c0
:101e800000a8eb002310200093bf9f00aebf9f006f
:101e9000b1bf9f00c5bf9f000100e00004003d00ee
:101ea000b0042000204588000080eb0005003700ca
:101eb000004feb00eebf9f00debf9f008400780064
:101ec00017fd07004f0778002f01b1000000060042
:101ed000889fbe008a1f7800800478004900900027
:101ee00002047800800f54000100360000047800de
:101ef000080178006a8544001a0078002dff070069
:101f00001a004400000d7800e8844400990c140085
:101f10000048eb004f0578004f04be0000000600ab
:101f2000100078006efa3700900190000388a3003b
:101f300001003200e6ff37000348a30001003a0029
:101f400004ff070000000600889fbe008a1f78007b
:101f500000047800010578000000eb000800e000b4
:101f60001a003200180090000058a3000c00320044
:101f7000ea04440068009000990f10000800360041
:101f8000b80990000001eb0082007800080078009a
:101f9000030001000080eb001900e0000b0032009c
:101fa000740044000008eb006c0044000008eb00e3
:101fb0006a0044000008eb000000eb000a00e000ab
:101fc000020032001800780039fa07004f05780047
:101fd0004f04be0000000600889fbe008a1f7800e4
:101fe0000004be000000eb000800e0002900320001
:101ff000180090000058a300120032006a05440047
:10200000680090009a0f100008003600b809900090
:102010000001eb0082007800080078000300010056
:102020000080eb001a00e0001a0032007400440047
:102030000008eb006c0044000008eb006a0044005c
:102040000008eb00780a900008109000800f520002
:10205000060031000002520011002000cfa2de0075
:10206000612bb9001800780002fa07000002200076
:10207000080040000008eb007e0044000008eb0070
:102080000000eb000900e0000200320018007800b8
:1020900007fa07004f0578004f04be000000060055
:1020a000f1fb2f0080804000f98f500001003e00be
:1020b0000050a00000000600f9ff3700f1f92f00e2
:1020c00080804000f98f500001003e00f005b20012
:1020d00000000600f9ff3700881f78000004780030
:1020e00000082000808f50001700350010082000e5
:1020f000808f50000b00340030082000808f50008b
:1021000011003a00920078006880500000097800c1
:102110003002be002003be00049cbe000694be0038
:1021200007003700920278006480520000097800ae
:102130001000be009e000700009cbe000294be007e
:1021400010002000010037000000eb004f04780071
:102150000000060084082000848f50001d0032001b
:102160000d003c0014082000848f5000270032002e
:1021700002003c000408200004003700240820006e
:10218000848f50002a00320044082000848f5000c1
:1021900048003a003b003700040a2000848f5000ba
:1021a0002c00320004003c0004092000848f500001
:1021b00040003a002d003700020c2000828f5000b2
:1021c0001e003200020f2000828f500039003a00ba
:1021d000300037009380e9000200e0000500320083
:1021e000810978001102fb00cfa2de00612bb9004b
:1021f0002d00370081097800114278000482fb002d
:102200008002eb006033b80027003700130278002b
:10221000e40052000200e0000a0032008109780068
:102220001102be004fabde00860378001e003700af
:1022300093027800e88052000e0037009302780085
:10224000e4805200810978001102be006033b800ba
:10225000150037009380e9008109780011027800a9
:10226000cfa2de00612bb9000f0037001303780006
:10227000e8005300810978003102be002103be004e
:10228000090037009380e9000200e00002003200fc
:10229000f1ff37009380e90081097800110278008e
:1022a0008002eb006033b8000498be000690be00c8
:1022b000100005000000050044082000848f500035
:1022c000270032000a003c0014082000848f5000d0
:1022d0001c00320024082000848f500026003200a9
:1022e00004082000848f50002c003a001c003700a6
:1022f00004092000848f50001f00320004003c00bd
:1023000084082000848f500024003a000700370022
:10231000040a2000848f500011003200040c2000b9
:10232000848f50001d003a00060037009380e900ba
:1023300081097800910078000108780082487800cf
:10234000150037009380e90081097800910078003a
:1023500001087800cf91de008288be000e003700b1
:102360009380e900810978009100780001087800e5
:1023700082087800080037009380e900810978001e
:1023800091007800010878006112b900612bb90052
:102390008498be008690be00100005000000050075
:1023a0000000060089fe0700fdff0700fcff370064
:1023b000810378001d0007000001be006000b80026
:1023c0000478a30013003a006220e10015003e00eb
:1023d0000d0039008301d1000281d3008180d30038
:1023e0008301d1000281d3008180d3008301d10019
:1023f0000281d3008180d3000538b000c42add00fb
:10240000f300b2008381720007f0a70003f0a00080
:102410000000060083ff2700020020006110b900c1
:10242000f9ff370003ff2700f7ff3700c70ade0078
:10243000f107b200f50fb20008003200e1cf420010
:10244000020032000170a00024000500810f70001e
:10245000010032000408050044000500810f7000ef
:1024600002003a00140005008502e9000000400067
:1024700081c04800fcff3b000170a0002400050063
:10248000020ab900001bb9000200b8008100420036
:10249000810043000000060000c0da0000000600d2
:1024a00000c0da0000000600889fbe008a9fbe00c0
:1024b00030044200b0844a0030054b0090854b0048
:1024c0006000b1000898be000a90be000440e10020
:1024d00005c8e10006d0e10007d8e10002003100a4
:1024e000680040001008e8004f05be004f04be0021
:1024f00000000600889fbe008a9fbe003004be0018
:102500002005be000418540005985c0006185d0004
:1025100007985d00110020000440e10005c8e100bb
:1025200006d0e10007d8e100010039008000eb008f
:10253000108810004f05be004f04be0000000600ca
:10254000f4874700889fbe008a9fbe008c9fbe0014
:102550008e1f7800d0b79f00e1b79f00f2b79f00b1
:1025600083bf9f000605be000404be00cfae9700e7
:102570000000eb00c0b79f00b0b79f00a0b79f005e
:1025800090b79f0080b79f00000678004fb097007b
:10259000000140000000e00006003d003c00070094
:1025a0000f074700450007000f004000beff07006f
:1025b00005003700360007000f0747003f000700ff
:1025c0000f004000cbff07004fb797000e00e00060
:1025d0000c0035005fb29700efb297007fb3970011
:1025e0008fbb970010002000010020006011b80090
:1025f0000002720081827200020373008383730001
:102600001c0007000c06e80001042000810f5600a2
:10261000deff3a000e00e00005003d000802be00ab
:102620000a03be0000fe2f000f0040009eff0700bf
:102630000d00e00005003a000fb297009fb297002e
:102640002fb39700bfb397000a0007005fb0970051
:10265000efb097007fb197008fb997004f077800d0
:102660004f06be004f05be004f04be004f01b10033
:1026700000000600010007000000060094b79f005c
:10268000a5b79f00b6b79f00c7b79f000000060020
:102690009fb097004f08de0002017000a2b79f00b4
:1026a0000fb097004f01de00818040008100710073
:1026b00091b79f000efe2f0000000600de0078009c
:1026c0004f09de00000040000000710080b79f004d
:1026d0006fa897004f01de0081804000010f71005c
:1026e0000e0007004f3ade000000400004007000ba
:1026f000e0af9f00090007000402420085824a0003
:1027000006034b0087834b00dcff07000802be0076
:102710000a03be0000fe2f00000006001fb2970053
:10272000afb297003fb39700cfb397000000060009
:10273000881f780018002000881f780080ff07009d
:102740008f87e9004f04780000000600801feb002f
:102750007bff07008f87e90000000600889fbe000e
:102760008a9fbe00e00f5000e08f5800e00f590034
:10277000e08f59000c003d006044b8006055b8007f
:102780000000540081805c0002015d0083815d00d7
:10279000180020001500070008003d001800070081
:1027a0000004eb00050037000004eb000f000700f9
:1027b00002003d001200070018002000dcff0700a7
:1027c0000800e000060032006022b8006033b80064
:1027d0000000520081805a0002015b0083815b008f
:1027e0004f05be004f04be0000000600e00f52007f
:1027f000e08f5a00e00f5b00e08f5b0000000600f6
:102800006044b8006055b8000402540085825c0042
:1028100006035d0087835d0000000600889fbe0000
:102820008a9fbe008c1f7800e00f5000e08f580098
:10283000e00f5900e08f59000d003d006044b800e2
:102840006055b8000000540081805c0002015d000a
:1028500083815d001c0020000820e10009a8e10040
:102860000ab0e1000bb8e1000d003d0008003700a0
:102870000006eb00e00f5200e08f5a00e00f5b0013
:10288000e08f5b0006003d006044b8006055b80072
:102890000402540085825c0006035d0087835d00ae
:1028a000aaff07000c00e000060032006022b8001a
:1028b0006033b8000000520081805a0002015b00c2
:1028c00083815b004f0678004f05be004f04be00b9
:0428d00000000600fe
:020000040000fa
:1028d4005465000073740000696e000067200000f6
:1028e400554100005254000020500000726f000057
:1028f40067720000616d000021000000252e0000b9
:102904002a73000000530000534d00004f440000a0
:102914004500000053470000414900004e000000fc
:102924005349000000530000434f0000554e00007f
:102934005400000025640000005300004d00000016
:10294400256400000a000000257300000053000005
:10295400454e000044000000454e000044200000a5
:08296400210000000d0000003d
:020000040000fa
:10296c005600fa00ec030700a046290084f8070083
:10297c0066004700a10020006b01070070004700b3
:10298c00e6004700811f780061002000811f78005d
:10299c0001482900811f780023f80700e6875700bb
:1029ac007a004700e6004700811f780051002000a4
:1029bc00811f780001482900811f78001af8070050
:1029cc00e6875700400220000e004000e60047005a
:1029dc00811f780021002000811f78000148290008
:1029ec00811f780010f80700e6875700e0022000ee
:1029fc000e004000e6004700811f780061002000b7
:102a0c00811f780001482900811f780006f8070013
:102a1c00e6875700800320000e004000e6004700c8
:102a2c00811f780021002000811f780001482900b7
:102a3c00811f7800fcf70700e68757002004200070
:102a4c000e004000e6004700811f78004100200086
:102a5c00811f780001482900811f7800f2f70700d8
:102a6c00e6875700700047005148290039f80700e5
:102a7c000000e00004003a00ccc2a80010022000c4
:102a8c0020f80700250137007a004700c1482900cb
:102a9c0030f807000000e00033003a00c0042000ca
:102aac000e004000e6004700e5804000811f7800e2
:102abc0011002000811f780001482900811f780037
:102acc00d9f70700e6875700c00420000e0040002d
:102adc009040780000c3b30080cf50001f0034003a
:102aec00c00420000e0040009040780030c3b300ba
:102afc0080cf500019003c00c00420000e004000a4
:102b0c00daf70700e30f500005003a00cd02a800e9
:102b1c00cce2a80010022000faf70700ff003700f3
:102b2c00c00420000e004000d0f70700e20f500058
:102b3c0005003a00cd02a900cce2a800100220004a
:102b4c00f0f70700f5003700cd02a800cce2a90091
:102b5c0010022000ebf70700f0003700cd02a800b0
:102b6c00cce2a900ed003700400220000e0040002e
:102b7c0021492900f7f707000000e00059003a004e
:102b8c00d00420000e004000e60047008180e800e1
:102b9c00811f780041002000811f78000148290026
:102bac00811f7800a0f70700e6875700d0042000ab
:102bbc000e00400090407800f0c2b30080cf50006f
:102bcc0045003400d00420000e00400090407800f6
:102bdc0090c3b30080cf50003f003c00e0042000c5
:102bec000e00400090407800f0c2b30080cf50003f
:102bfc0039003400e00420000e00400090407800c2
:102c0c0090c3b30080cf500033003c00f004200090
:102c1c000e00400090407800f0c2b30080cf50000e
:102c2c002d003400f00420000e004000904078008d
:102c3c0090c3b30080cf500027003c00000520005b
:102c4c000e00400090407800f0c2b30080cf5000de
:102c5c0021003400000520000e0040009040780058
:102c6c0090c3b30080cf50001b003c00d004200068
:102c7c000e0040007df7070091a02100810f50004d
:102c8c0005003400cda2a800cd82a80010022000bf
:102c9c009cf70700a1003700d00420000e00400074
:102cac0072f7070041d02000810f5000050034005e
:102cbc00cda2a900cd82a8001002200091f7070038
:102ccc0096003700cda2a800cd82a90010022000ea
:102cdc008cf7070091003700cda2a800cd82a90087
:102cec008e003700e00220000e0040005149290000
:102cfc0098f707000000e0000e003a0089f7070083
:102d0c00cf80de00f2ff2f000300200017f7070032
:102d1c000e81e800000978000e80e800901f780012
:102d2c00c0492900801f780032f70700e48757005c
:102d3c00f2ff3700800320000e004000f14929000b
:102d4c0084f707000000e00062003a0075f7070006
:102d5c00cf80de00f2ff2f000300200003f70700f6
:102d6c006401470000097800100520000e004000a7
:102d7c00e60047008180e800811f780041002000b8
:102d8c00811f780001482900811f780026f7070071
:102d9c00e6875700100520000e0040009040780098
:102dac00f0c2b30080cf5000430034001005200067
:102dbc000e0040009040780090c3b30080cf5000cc
:102dcc003d003c00200520000e00400090407800a3
:102ddc00f0c2b30080cf5000370034002005200033
:102dec000e0040009040780090c3b30080cf50009c
:102dfc0031003c00300520000e004000904078006f
:102e0c00f0c2b30080cf50002b00340030052000fe
:102e1c000e0040009040780090c3b30080cf50006b
:102e2c0025003c00400520000e004000904078003a
:102e3c00f0c2b30080cf50001f00340040052000ca
:102e4c000e0040009040780090c3b30080cf50003b
:102e5c0019003c000000eb00000f78000e0037005a
:102e6c0030f70700cf80de00f2ff2f0003002000b8
:102e7c00bef60700640147000009780064004700b3
:102e8c00901f7800204a2900801f7800d9f607008f
:102e9c00e48757001e0fe800100520000e004000cc
:102eac00f2f607009e0f5000edff3c0010022000d0
:102ebc0014f707001900370066004700801f7800e0
:102ecc00604a2900801f7800caf60700e487570083
:102edc0012003700200420000e004000914a290007
:102eec001cf707000000e00006003a00ccc2a90065
:102efc00e04a2900801f7800bef607008f87e900a2
:102f0c000600370066004700801f7800604a2900e1
:102f1c00801f7800b7f60700e4875700404b290064
:102f2c0017f7070092fe37000600fa000e81e80042
:102f3c000009780064004700010878000e80e80062
:102f4c00100f78007b0007008e80e800910078005d
:102f5c00804878000e80e80010007800104078005f
:102f6c008a0007000e80e8001000780010407800fe
:102f7c00e84f500013003a000e80e8001000780073
:102f8c009e0f50000f00360000c2b3007f000700f8
:102f9c0080c0b3007d00070064004700100078007b
:102fac008000e80064004700010878000e80e8000b
:102fbc00100078008000e9000e80e800010878001d
:102fcc00160037000e80e8001000780010407800e2
:102fdc00ea4f5000100032000e80e800100078001c
:102fec0010407800ed4f5000110032000e80e800c8
:102ffc00100078008000e8000e80e80001087800de
:10300c0064004700100078008000e900640047006d
:10301c000108780001003700000000006400470040
:10302c0010007800e10f5000c6ff3c000100370093
:10303c00000000000e80e800900078000040eb00db
:10304c00804878001e0078000080fa00000006001e
:10305c000000fa0097e0a90097c0a90080002000aa
:10306c00801188000040200090118800f00c200096
:10307c00c011880090802000304088009080200093
:10308c0020408800208120001040880020812000f2
:10309c00004088000868ef00c08721000700070087
:1030ac00a08921001400070097c0a80031e2a800f5
:1030bc003342a8000080fa00000006000200fa006b
:1030cc00000f78001e0078000000e00003003a00ba
:1030dc00c0872100e0408800020037009e00780085
:1030ec00e14088000080fa00000006000000fa00b1
:1030fc000080fa00000006000200fa00000f7800c1
:10310c001e0078000000e00003003a00a0892100b6
:10311c00f0408800020037009e007800f1408800e3
:10312c000080fa00000006000000fa000080fa009f
:10313c00000006000200fa000040eb00004f78008f
:10314c00000000001140800000408000808f500083
:10315c00fcff320010408000104f780010408000bf
:10316c000000e8001040880011408000b081200071
:10317c00808f500002003a0020812000104088000f
:10318c001e4078000080fa00000006000200fa00e1
:10319c00004f7800000000001c0007000004a20093
:1031ac000004e000fcff3a00204080001e4878003c
:1031bc00204080000000e800204088002140800072
:1031cc0020812000808f500002003a009080200067
:1031dc002040880097e0a8000080fa00000006005c
:1031ec000000fa0011408000004080000080680060
:1031fc0000f0a7000000ea000000ea004f00de002b
:10320c00004078000080fa00000006000400fa007c
:10321c000e80e800314080000108780021408000d9
:10322c000e80e80010007800808f500007003100fd
:10323c000e80e80090007800204080000080500054
:10324c000000e900000f7800060037000e80e8004f
:10325c009000780020408000008050006800400002
:10326c00000f78001e00780000f0a7000000ea00b4
:10327c000000ea004f00de00004078000080fa00f9
:10328c00000006000000fa00214080003040800061
:10329c00808f500009003a0091118000001020002e
:1032ac000080600000f0a7000000ea000000ea00c7
:1032bc004f00de0000407800010037000040eb00ba
:1032cc000080fa00000006000400fa000e80e800fe
:1032dc000140800001087800114080000e80e80059
:1032ec0010007800810f5000070031000e80e800bc
:1032fc009000780010408000008050006900400071
:10330c00000f7800040037000e80e8009000780071
:10331c0010408000008f5000f00f20009e007800bd
:10332c00808f50000200360000c0eb000200370016
:10333c001e007800004078000080fa0000000600b3
:10334c000400fa000e80e80031408000010878008b
:10335c00214080000e80e80010007800808f500023
:10336c00070031000e80e8009000780020408000bb
:10337c00008050000000e900000f780006003700c4
:10338c000e80e80090007800204080000080500003
:10339c0068004000000f7800f00f20009e007800bd
:1033ac00808f50000200360000c0eb000200370096
:1033bc001e007800004078000080fa000000060033
:1033cc000800fa0064014700000978006600470015
:1033dc0001087800bcff07000080fb00000f78009c
:1033ec0066004700100078009e0f5000020031006c
:1033fc0066004700100f78008000eb000e80e8009c
:10340c00010878000e0037004aff0700e40047006f
:10341c009100780080487800640047001000780024
:10342c008000e80064004700010878000e80e80086
:10343c00100078008000e8000e80e8000108780099
:10344c000e80e800100078009e0f5000eeff39004f
:10345c001e0078000080fa00000006000800fa0048
:10346c0064014700000978006600470001087800f5
:10347c00b3ff07000080fb00000f780066004700d8
:10348c00100078009e0f50000200310066004700cb
:10349c00100f78008000eb000e80e8000108780027
:1034ac000e003700640047001000780010407800d0
:1034bc00e4004700910078000101e800e4004700b7
:1034cc008208780031ff07000e80e80010007800b9
:1034dc008000e8000e80e800010878000e80e8000b
:1034ec00100078009e0f5000eeff39001e0078008f
:1034fc000080fa00000006000400fa000000eb0057
:10350c00000f780070ff07008e80e800804878007c
:10351c008bff0700e3004700804878000e80e8002e
:10352c00104078000080fb000000e0000300320037
:10353c00e90f500003003200040037001e20a000e9
:10354c00040037001e00a000020037001e10a0006f
:10355c000000000063004700104078000080fb0072
:10356c000000e00003003200e90f500003003200bd
:10357c00040037001e30a000020037001e40a000df
:10358c00000000001e0078000080fa000000060019
:10359c000400fa008e80e80080087800114080005a
:1035ac000e80e80010007800008f40000200370009
:1035bc009e007800698f5000b08120009e0078003a
:1035cc00808f5000faff3e001e00780010407800fb
:1035dc000080fa00000006000000fa003aff070025
:1035ec000080fb000000e9004f00de000040780086
:1035fc000080fa00000006000000fa0050ff0700ef
:10360c000080fb000000e9004f00de000040780065
:10361c000080fa00000006000000fa009011800003
:10362c000080fa00000006000000fa0044ff0700ca
:10363c000004e00010003200314080002040800087
:10364c00808f5000060036003040800080007800eb
:10365c0020408000008050000000e9000700370087
:10366c0030408000800078002040800000805000b6
:10367c0068004000010037000000eb000080fa00f9
:10368c00000006000000fa000fff07000004e00035
:10369c00100032001140800000408000808f5000ec
:1036ac00060036001040800080007800004080004a
:1036bc00008050000000e900070037001040800037
:1036cc0080007800004080000080500068004000be
:1036dc00010037000000eb000080fa00000006003b
:1036ec000000fa0031e2a8003342a8000080fa0082
:1036fc00000006000000fa0031e2a9003342a900e4
:08370c000080fa000000060035
:020000040000fa
:103714000008000020000000000000004008000035
:103724000200000002000000ffff0000200800006b
:103734002000000000000000a008000004000000b9
:1037440000000000840800001c00000002000000cb
:10375400286e69006c29000068076c00094c83001e
:103764006a907400a07ac000008068008800840019
:103774006c8200008100000042080000420000004a
:103784000200000046084800084808000100030041
:103794000000000000000000000000000000ec0039
:1037a4000f0000000000000000900f00e00e000079
:1037b4000000000000000000000000000000000005
:1037c40000000000000000000000000000000000f5
:1037d400000000000000000000000000a408000039
:0c37e400020000000000000000000000d7
:020000040000fa
:1037f0000000fa0000002300203a88004827ef006c
:103800004e27ef007027ef007227ef007427ef00bc
:103810007627ef001200200080072000a109200079
:10382000337420008049780081497800824978000b
:103830000001eb00600420007105200023742000cb
:103840008049780081497800824978000080fa0038
:10385000000006000000fa00c422ef001000200063
:10386000601688007009200000168800e0e32c0034
:10387000401688005620ef005820ef005a20ef0035
:103880006e20ef007020ef007220ef00c622ef00e4
:10389000ce22ef00f000200000278800c0012c009d
:1038a000102788000080fa00000006000000fa00df
:1038b00021068000f08f2f00008060000080a000b3
:1038c0002006880091058000f0ff2800008060003d
:1038d00000c0a0009005880091058000f08f2f00a7
:1038e000008060000080a000900588000080fa0041
:1038f000000006000200fa00000f78009e00780029
:1039000001428800ffff37000000fa00008220001b
:103910008007780080832000000188000080fa0082
:10392000000006000000fa00caff0700dfff0700e2
:10393000afff0700c9fd07000080fa000000060085
:020000040000fa
:0200000401f009
:04000000ffffff00ff
:020000040000fa
:0200000401f009
:04000800ffffff00f7
:020000040000fa
:0200000401f009
:04000c0059ff000098
:020000040000fa
:0200000401f009
:04001000bbff000032
:020000040000fa
:0200000401f009
:040014005fff00008a
:020000040000fa
:0200000401f009
:04001800f4ff0000f1
:020000040000fa
:0200000401f009
:04001c00feff0000e3
:020000040000fa
:0200000401f009
:040020007fff00005e
:00000001FF
