:020000040000fa
:080000000002040000000000f2
:020000040000fa
:040008004a030000a7
:020000040000fa
:04000c00c802000026
:020000040000fa
:040010000a030000df
:020000040000fa
:04001400e8020000fe
:020000040000fa
:040018002a030000b7
:020000040000fa
:04001c004a03000093
:020000040000fa
:040020004a0300008f
:020000040000fa
:040024004a0300008b
:020000040000fa
:040028004a03000087
:020000040000fa
:04002c004a03000083
:020000040000fa
:040030004a0300007f
:020000040000fa
:040034004a0300007b
:020000040000fa
:040038004a03000077
:020000040000fa
:04003c004a03000073
:020000040000fa
:040040004a0300006f
:020000040000fa
:040044004a0300006b
:020000040000fa
:040048004a03000067
:020000040000fa
:04004c004a03000063
:020000040000fa
:040050004a0300005f
:020000040000fa
:040054004a0300005b
:020000040000fa
:040058004a03000057
:020000040000fa
:04005c004a03000053
:020000040000fa
:040060004a0300004f
:020000040000fa
:040064004a0300004b
:020000040000fa
:040068004a03000047
:020000040000fa
:04006c004a03000043
:020000040000fa
:040070004a0300003f
:020000040000fa
:040074004a0300003b
:020000040000fa
:040078004a03000037
:020000040000fa
:04007c004a03000033
:020000040000fa
:040080004a0300002f
:020000040000fa
:040084004a0300002b
:020000040000fa
:040088004a03000027
:020000040000fa
:04008c004a03000023
:020000040000fa
:040090004a0300001f
:020000040000fa
:040094004a0300001b
:020000040000fa
:040098004a03000017
:020000040000fa
:04009c004a03000013
:020000040000fa
:0400a0004a0300000f
:020000040000fa
:0400a4004a0300000b
:020000040000fa
:0400a8004a03000007
:020000040000fa
:0400ac004a03000003
:020000040000fa
:0400b0004a030000ff
:020000040000fa
:0400b4004a030000fb
:020000040000fa
:0400b8004a030000f7
:020000040000fa
:0400bc004a030000f3
:020000040000fa
:0400c0004a030000ef
:020000040000fa
:0400c4004a030000eb
:020000040000fa
:0400c8004a030000e7
:020000040000fa
:0400cc004a030000e3
:020000040000fa
:0400d0004a030000df
:020000040000fa
:0400d4004a030000db
:020000040000fa
:0400d8004a030000d7
:020000040000fa
:0400dc004a030000d3
:020000040000fa
:0400e0004a030000cf
:020000040000fa
:0400e4004a030000cb
:020000040000fa
:0400e8004a030000c7
:020000040000fa
:0400ec004a030000c3
:020000040000fa
:0400f0004a030000bf
:020000040000fa
:0400f4004a030000bb
:020000040000fa
:0400f8004a030000b7
:020000040000fa
:0400fc004a030000b3
:020000040000fa
:040100004a030000ae
:020000040000fa
:040104004a030000aa
:020000040000fa
:040108004a030000a6
:020000040000fa
:04010c004a030000a2
:020000040000fa
:040110004a0300009e
:020000040000fa
:040114004a0300009a
:020000040000fa
:040118004a03000096
:020000040000fa
:04011c004a03000092
:020000040000fa
:040120004a0300008e
:020000040000fa
:040124004a0300008a
:020000040000fa
:040128004a03000086
:020000040000fa
:04012c004a03000082
:020000040000fa
:040130004a0300007e
:020000040000fa
:040134004a0300007a
:020000040000fa
:040138004a03000076
:020000040000fa
:04013c004a03000072
:020000040000fa
:040140004a0300006e
:020000040000fa
:040144004a0300006a
:020000040000fa
:040148004a03000066
:020000040000fa
:04014c004a03000062
:020000040000fa
:040150004a0300005e
:020000040000fa
:040154004a0300005a
:020000040000fa
:040158004a03000056
:020000040000fa
:04015c004a03000052
:020000040000fa
:040160004a0300004e
:020000040000fa
:040164004a0300004a
:020000040000fa
:040168004a03000046
:020000040000fa
:040208004a030000a5
:020000040000fa
:04020c00c802000024
:020000040000fa
:040210000a030000dd
:020000040000fa
:04021400e8020000fc
:020000040000fa
:040218002a030000b5
:020000040000fa
:04021c004a03000091
:020000040000fa
:040220004a0300008d
:020000040000fa
:040224004a03000089
:020000040000fa
:040228004a03000085
:020000040000fa
:04022c004a03000081
:020000040000fa
:040230004a0300007d
:020000040000fa
:040234004a03000079
:020000040000fa
:040238004a03000075
:020000040000fa
:04023c004a03000071
:020000040000fa
:040240004a0300006d
:020000040000fa
:040244004a03000069
:020000040000fa
:040248004a03000065
:020000040000fa
:04024c004a03000061
:020000040000fa
:040250004a0300005d
:020000040000fa
:040254004a03000059
:020000040000fa
:040258004a03000055
:020000040000fa
:04025c004a03000051
:020000040000fa
:040260004a0300004d
:020000040000fa
:040264004a03000049
:020000040000fa
:040268004a03000045
:020000040000fa
:04026c004a03000041
:020000040000fa
:040270004a0300003d
:020000040000fa
:040274004a03000039
:020000040000fa
:040278004a03000035
:020000040000fa
:04027c004a03000031
:020000040000fa
:040280004a0300002d
:020000040000fa
:040284004a03000029
:020000040000fa
:040288004a03000025
:020000040000fa
:04028c004a03000021
:020000040000fa
:040290004a0300001d
:020000040000fa
:040294004a03000019
:020000040000fa
:040298004a03000015
:020000040000fa
:04029c004a03000011
:020000040000fa
:0402a0004a0300000d
:020000040000fa
:0402a4004a03000009
:020000040000fa
:0402a8004a03000005
:020000040000fa
:0402ac004a03000001
:020000040000fa
:0402b0004a030000fd
:020000040000fa
:0402b4004a030000f9
:020000040000fa
:0402b8004a030000f5
:020000040000fa
:0402bc004a030000f1
:020000040000fa
:0402c0004a030000ed
:020000040000fa
:0402c4004a030000e9
:020000040000fa
:0402c8004a030000e5
:020000040000fa
:0402cc004a030000e1
:020000040000fa
:0402d0004a030000dd
:020000040000fa
:0402d4004a030000d9
:020000040000fa
:0402d8004a030000d5
:020000040000fa
:0402dc004a030000d1
:020000040000fa
:0402e0004a030000cd
:020000040000fa
:0402e4004a030000c9
:020000040000fa
:0402e8004a030000c5
:020000040000fa
:0402ec004a030000c1
:020000040000fa
:0402f0004a030000bd
:020000040000fa
:0402f4004a030000b9
:020000040000fa
:0402f8004a030000b5
:020000040000fa
:0402fc004a030000b1
:020000040000fa
:040300004a030000ac
:020000040000fa
:040304004a030000a8
:020000040000fa
:040308004a030000a4
:020000040000fa
:04030c004a030000a0
:020000040000fa
:040310004a0300009c
:020000040000fa
:040314004a03000098
:020000040000fa
:040318004a03000094
:020000040000fa
:04031c004a03000090
:020000040000fa
:040320004a0300008c
:020000040000fa
:040324004a03000088
:020000040000fa
:040328004a03000084
:020000040000fa
:04032c004a03000080
:020000040000fa
:040330004a0300007c
:020000040000fa
:040334004a03000078
:020000040000fa
:040338004a03000074
:020000040000fa
:04033c004a03000070
:020000040000fa
:040340004a0300006c
:020000040000fa
:040344004a03000068
:020000040000fa
:040348004a03000064
:020000040000fa
:04034c004a03000060
:020000040000fa
:040350004a0300005c
:020000040000fa
:040354004a03000058
:020000040000fa
:040358004a03000054
:020000040000fa
:04035c004a03000050
:020000040000fa
:040360004a0300004c
:020000040000fa
:040364004a03000048
:020000040000fa
:040368004a03000044
:020000040000fa
:100400002f8220000eff20000e0188000000000057
:10041000000020000000e000020032000001200087
:1004200020028800140007009c0007000000e00084
:1004300003003a008079200001002000020037000c
:100440000000200001002000810f70000100320038
:1004500014000700000020000000e000020032004d
:1004600000000200000000008c04020000000000f8
:100470000040da000000fe004440a9000000200017
:100480000000e0000300320000002000a00188000e
:100490004440a800000006008a1f78008b1f7800e7
:1004a0000000060091018800800478000000eb0045
:1004b0001a003700e284440032a0b4009905ba0063
:1004c000e284440032a0b4009906ba00e2844400f9
:1004d00032a0b4000006eb00476fde00fd07b2005b
:1004e000636ce10003003a00ebff07000000eb0043
:1004f0000a003700606ce10004003a00005deb0088
:100500008b05e900fdff3e00040037006168e10053
:10051000010032000086eb000b00070019c7ba008b
:100520001905ba000e04e00003003a000a00e000da
:10053000e0ff3a0000000600fe07b2009e018800be
:100540008a047800f5ff3700395dba008b05e900b1
:100550000c003200295dba008b05e900080032006a
:100560000c00e00003003a00e284440032a0b40032
:10057000f5ff370019ddba008b05e900faff3a00f4
:100580008904e800e184440032a0b40000000600c1
:100590003600f800809fbe00829fbe00849fbe0090
:1005a000869fbe000000fa008020a9000000eb003a
:1005b000530207000080fa004f03be004f02be0046
:1005c0004f01be004f00be003600f900004006009b
:1005d0003600f800809fbe00829fbe00849fbe0050
:1005e000869fbe000000fa004a0207008040a90072
:1005f00010002000420207000080fa004f03be00f6
:100600004f02be004f01be004f00be003600f90091
:10061000004006003600f800809fbe00829fbe00aa
:10062000849fbe00869fbe000000fa008060a90083
:1006300020002000320207000080fa004f03be00b5
:100640004f02be004f01be004f00be003600f90051
:10065000004006003600f800809fbe00829fbe006a
:10066000849fbe00869fbe000000fa008080a90023
:1006700030002000220207000080fa004f03be0075
:100680004f02be004f01be004f00be003600f90011
:10069000004006000040da000000fe0000000500f7
:020000040000fa
:1006a0000600fa00e4004700800878006400470074
:1006b00010017800d0cc2c000010b8004308de00f8
:1006c0006a00b90000007800800051000e80e80048
:1006d000010878000000eb00000f78000e80e800b1
:1006e000100078008000eb00920020000300200042
:1006f000820f5000838f580029003e0000600100e7
:10070000090037000b0037000d0037000f003700dd
:1007100011003700130037001500370017003700ad
:10072000190037001b003700f00a2000000f780086
:100730001e00370060002000000f78001b0037000b
:10074000b00c2000000f780018003700f0042000e3
:10075000000f78001500370060062000000f7800b9
:1007600012003700d0062000000f78000f0037007d
:10077000d00f2000000f78000c0037007000200020
:10078000000f780009003700f00e2000000f7800fd
:100790000600370070062000000f780003003700c5
:1007a000f00a2000000f7800000000001e00780012
:1007b0000080fa00000006000400fa00000f780034
:1007c0000e80e800010878000e80e8001000780034
:1007d000e20f500012003200e20f500005003e0010
:1007e0000000e00008003200e10f50000900320074
:1007f00014003700e30f50000c003200e40f5000eb
:100800000d0032000f003700011020001e8f400045
:100810000c003700012020001e8f40000900370027
:10082000100020002016880006003700200020005d
:100830002016880003003700000021001e0f400032
:10084000000000001e0078000080fa000000060092
:100850000a00fa00e8004700800878000000eb007a
:10086000000f78002600370068004700100178006c
:10087000d0cc2c000010b8004308de006a00b9009c
:1008800000007800800051000e80e8000108780028
:100890006800470090007800d0cc2c000008b80019
:1008a000c308de0068004700010878000e80e800f9
:1008b000100078007aff070080007800640047008d
:1008c000010878009e00780064004700100078005e
:1008d000b9ff070080007800660047000108780033
:1008e0001e0fe8006600470090007800611688003f
:1008f000803e20000100200073010700c422ef00a9
:1009000068004700100078000000e000d6ff3a00c1
:100910000080fa00000006001600fa00881f780028
:100920008b010700010120006400470001087800e6
:10093000c802a900c822a900c842a900c862a9002b
:10094000c8a2a900c8c2a900c8e2a900c902a9009a
:10095000c922a900c982a900c002a900c022a90019
:100960000f00780000047800640047001000780051
:10097000800078000101e900e60047008208780065
:10098000000040000000e8000000e8000000d10086
:10099000800040000f007800818747000000e800d9
:1009a0000000d10000004000e80047008008780007
:1009b0006400470010007800800078000101e90021
:1009c000ea00470082087800000040000000e800cc
:1009d0000000e8000000d100800040000f00780017
:1009e000818747000000e8000000d10000004000bf
:1009f000ec004700800878003d0007000000eb0095
:100a0000000f7800210020006e00470001087800e8
:100a10006c004700900078001e0078000000400045
:100a20000081400064004700100078001e00500064
:100a3000ee004700910078000180b9008000780046
:100a400068004700900178001e0078000000400018
:100a500000804100db000700000f780064004700c1
:100a6000100078009e007800808f5000e8ff390069
:100a70007000470010007800c9000700800078006f
:100a800072004700010878008000eb000e80e8004b
:100a90000108780008003700720047001000780055
:100aa0006bff07000e80e800100078008000e8006f
:100ab0000e80e800010878000e80e80090007800c1
:100ac000301f2000808f5000f3ff34008000eb00c7
:100ad0007200470001087800c90007008000780014
:100ae0007400470001087800880778009cff3700f1
:100af0000000fa00004220001012880010002000c0
:100b000020128800c0002800001288000080fa002f
:100b1000000006000400fa00000f78000e80e800d4
:100b200001087800000000000012800062006000f0
:100b30000000e000fcff3a001e0078001000780082
:100b40004012880000000000011280000002200016
:100b5000008060000000e000fbff3a000e80e8002b
:100b60001000780041128000010878000080fa002f
:100b7000000006001800fa00f20147008009780022
:100b800074004700010878007600470002087800ea
:100b90000000eb00000f78008000eb000e80e80002
:100ba000010878008000eb006e0047000108780023
:100bb0008000eb0070004700010878002100200051
:100bc0006c004700010878007400470010007800ae
:100bd0008000d100740047000108780072004700cf
:100be000100078000000e00007003a008000eb00f1
:100bf0006a00470001087800f000470064004700e1
:100c000001087800060037006a004700ec00470042
:100c10001108780064004700f200470011087800ce
:100c200076004700100078000000e00007003a005e
:100c30008000eb006800470001087800ee004700e4
:100c40006600470001087800070037006800470089
:100c5000ec0047001108780066004700f6004700e6
:100c6000110878000000000000128000620060009f
:100c70000000e000fcff3a00250037000012800071
:100c8000620060000000e0000c003a0064004700d1
:100c900010007800100078004012880064004700bf
:100ca000900078006a0047001000780080804000c3
:100cb00064004700010878001e0fe8000112800060
:100cc00000022000008060000000e00010003a00f8
:100cd000660047001000780041128000010878008b
:100ce0006600470090007800680047001000780018
:100cf0008080400066004700010878000e80e80010
:100d0000100078008000e8000e80e80001087800fc
:100d100074004700100078009e007800808f50001b
:100d2000d6ff3900150037000112800000022000b4
:100d3000008060000000e00010003a0066004700fc
:100d4000100078004112800001087800660047001a
:100d50009000780068004700100078008080400014
:100d600066004700010878000e80e8001000780057
:100d70008000e8000e80e800010878000e80e8009e
:100d8000900078007400470010007800808f5000b9
:100d9000e5ff39001e0078000080fa000000060020
:100da0000400fa008e80e800800878008e00780049
:100db0000e80e80057ff07001e0078000080fa0050
:100dc000000006000600fa00000f78000e80e80020
:100dd00001087800640047000208780064004700ba
:100de000900078001e007800010178008e80e800f5
:100df000910078005fff07000080fa000000060005
:100e00000000fa00001280000080fa0000000600d6
:100e10000000fa0000102300203a88004827ef0065
:100e20004e27ef007027ef007227ef007427ef00c6
:100e30007627ef007200200080072000a109200023
:100e40003374200080497800814978008249780015
:100e50000001eb00600420007105200023742000d5
:100e60008049780081497800824978000080fa0042
:100e7000000006000000fa00c422ef00cc22ef00c0
:100e80007009200000168800f07f250040168800b9
:100e90005620ef005820ef005a20ef006e20ef00a0
:100ea0007020ef007220ef00c622ef00ce22ef008c
:100eb0007000200000278800c0012500102788004e
:080ec0000080fa0000000600aa
:020000040000fa
:100ec800f03fb1000180b10006003500ee030900d3
:100ed80000000000403fb1000180b100fbff3d0071
:100ee8001000b000203fb00002003500008009006b
:080ef8000000000000000600ec
:020000040000fa
:100f00000200fa00000f78009e007800014188007e
:100f1000ffff37000000fa00008020008007780003
:100f200080812000000188000080fa000000060097
:020000040000fa
:100f3000200800000200000002000000ffff000087
:100f40000008000020000000000000000000000079
:020000040000fa
:100f50000000fa00c7ff0700adff0700030007000d
:100f6000e3fe07000080fa00000006000000fa001f
:080f70000080fa0000000600f9
:020000040000fa
:0200000401f009
:04000000ffffff00ff
:020000040000fa
:0200000401f009
:04000800ffffff00f7
:020000040000fa
:0200000401f009
:04000c007fff000072
:020000040000fa
:0200000401f009
:04001000bfff00002e
:020000040000fa
:0200000401f009
:040014005fff00008a
:020000040000fa
:0200000401f009
:04001800ffff0000e6
:020000040000fa
:0200000401f009
:04001c00ffff0000e2
:020000040000fa
:0200000401f009
:04002000ffff0000de
:00000001FF
